{
  "_format": "hh-sol-artifact-1",
  "contractName": "MyEpicGame",
  "sourceName": "contracts/MyEpicGame.sol",
  "abi": [
    {
      "inputs": [
        {
          "internalType": "string[]",
          "name": "characterNames",
          "type": "string[]"
        },
        {
          "internalType": "string[]",
          "name": "characterImageURIs",
          "type": "string[]"
        },
        {
          "internalType": "uint256[]",
          "name": "characterHp",
          "type": "uint256[]"
        },
        {
          "internalType": "uint256[]",
          "name": "characterAttackDmg",
          "type": "uint256[]"
        },
        {
          "internalType": "string",
          "name": "bossName",
          "type": "string"
        },
        {
          "internalType": "string",
          "name": "bossImageURI",
          "type": "string"
        },
        {
          "internalType": "uint256",
          "name": "bossHp",
          "type": "uint256"
        },
        {
          "internalType": "uint256",
          "name": "bossAttackDamage",
          "type": "uint256"
        }
      ],
      "stateMutability": "nonpayable",
      "type": "constructor"
    },
    {
      "anonymous": false,
      "inputs": [
        {
          "indexed": true,
          "internalType": "address",
          "name": "owner",
          "type": "address"
        },
        {
          "indexed": true,
          "internalType": "address",
          "name": "approved",
          "type": "address"
        },
        {
          "indexed": true,
          "internalType": "uint256",
          "name": "tokenId",
          "type": "uint256"
        }
      ],
      "name": "Approval",
      "type": "event"
    },
    {
      "anonymous": false,
      "inputs": [
        {
          "indexed": true,
          "internalType": "address",
          "name": "owner",
          "type": "address"
        },
        {
          "indexed": true,
          "internalType": "address",
          "name": "operator",
          "type": "address"
        },
        {
          "indexed": false,
          "internalType": "bool",
          "name": "approved",
          "type": "bool"
        }
      ],
      "name": "ApprovalForAll",
      "type": "event"
    },
    {
      "anonymous": false,
      "inputs": [
        {
          "indexed": false,
          "internalType": "uint256",
          "name": "newBossHp",
          "type": "uint256"
        },
        {
          "indexed": false,
          "internalType": "uint256",
          "name": "newPlayerHp",
          "type": "uint256"
        }
      ],
      "name": "AttackComplete",
      "type": "event"
    },
    {
      "anonymous": false,
      "inputs": [
        {
          "indexed": false,
          "internalType": "address",
          "name": "sender",
          "type": "address"
        },
        {
          "indexed": false,
          "internalType": "uint256",
          "name": "tokenId",
          "type": "uint256"
        },
        {
          "indexed": false,
          "internalType": "uint256",
          "name": "characterIndex",
          "type": "uint256"
        }
      ],
      "name": "CharacterNFTMinted",
      "type": "event"
    },
    {
      "anonymous": false,
      "inputs": [
        {
          "indexed": true,
          "internalType": "address",
          "name": "from",
          "type": "address"
        },
        {
          "indexed": true,
          "internalType": "address",
          "name": "to",
          "type": "address"
        },
        {
          "indexed": true,
          "internalType": "uint256",
          "name": "tokenId",
          "type": "uint256"
        }
      ],
      "name": "Transfer",
      "type": "event"
    },
    {
      "inputs": [
        {
          "internalType": "address",
          "name": "to",
          "type": "address"
        },
        {
          "internalType": "uint256",
          "name": "tokenId",
          "type": "uint256"
        }
      ],
      "name": "approve",
      "outputs": [],
      "stateMutability": "nonpayable",
      "type": "function"
    },
    {
      "inputs": [],
      "name": "attackBoss",
      "outputs": [],
      "stateMutability": "nonpayable",
      "type": "function"
    },
    {
      "inputs": [
        {
          "internalType": "address",
          "name": "owner",
          "type": "address"
        }
      ],
      "name": "balanceOf",
      "outputs": [
        {
          "internalType": "uint256",
          "name": "",
          "type": "uint256"
        }
      ],
      "stateMutability": "view",
      "type": "function"
    },
    {
      "inputs": [],
      "name": "bigBoss",
      "outputs": [
        {
          "internalType": "string",
          "name": "name",
          "type": "string"
        },
        {
          "internalType": "string",
          "name": "imageURI",
          "type": "string"
        },
        {
          "internalType": "uint256",
          "name": "hp",
          "type": "uint256"
        },
        {
          "internalType": "uint256",
          "name": "maxHp",
          "type": "uint256"
        },
        {
          "internalType": "uint256",
          "name": "attackDamage",
          "type": "uint256"
        }
      ],
      "stateMutability": "view",
      "type": "function"
    },
    {
      "inputs": [],
      "name": "checkIfUserHasNFT",
      "outputs": [
        {
          "components": [
            {
              "internalType": "uint256",
              "name": "characterIndex",
              "type": "uint256"
            },
            {
              "internalType": "string",
              "name": "name",
              "type": "string"
            },
            {
              "internalType": "string",
              "name": "imageURI",
              "type": "string"
            },
            {
              "internalType": "uint256",
              "name": "hp",
              "type": "uint256"
            },
            {
              "internalType": "uint256",
              "name": "maxHp",
              "type": "uint256"
            },
            {
              "internalType": "uint256",
              "name": "attackDamage",
              "type": "uint256"
            }
          ],
          "internalType": "struct MyEpicGame.CharacterAttributes",
          "name": "",
          "type": "tuple"
        }
      ],
      "stateMutability": "view",
      "type": "function"
    },
    {
      "inputs": [],
      "name": "getAllDefaultCharacters",
      "outputs": [
        {
          "components": [
            {
              "internalType": "uint256",
              "name": "characterIndex",
              "type": "uint256"
            },
            {
              "internalType": "string",
              "name": "name",
              "type": "string"
            },
            {
              "internalType": "string",
              "name": "imageURI",
              "type": "string"
            },
            {
              "internalType": "uint256",
              "name": "hp",
              "type": "uint256"
            },
            {
              "internalType": "uint256",
              "name": "maxHp",
              "type": "uint256"
            },
            {
              "internalType": "uint256",
              "name": "attackDamage",
              "type": "uint256"
            }
          ],
          "internalType": "struct MyEpicGame.CharacterAttributes[]",
          "name": "",
          "type": "tuple[]"
        }
      ],
      "stateMutability": "view",
      "type": "function"
    },
    {
      "inputs": [
        {
          "internalType": "uint256",
          "name": "tokenId",
          "type": "uint256"
        }
      ],
      "name": "getApproved",
      "outputs": [
        {
          "internalType": "address",
          "name": "",
          "type": "address"
        }
      ],
      "stateMutability": "view",
      "type": "function"
    },
    {
      "inputs": [],
      "name": "getBigBoss",
      "outputs": [
        {
          "components": [
            {
              "internalType": "string",
              "name": "name",
              "type": "string"
            },
            {
              "internalType": "string",
              "name": "imageURI",
              "type": "string"
            },
            {
              "internalType": "uint256",
              "name": "hp",
              "type": "uint256"
            },
            {
              "internalType": "uint256",
              "name": "maxHp",
              "type": "uint256"
            },
            {
              "internalType": "uint256",
              "name": "attackDamage",
              "type": "uint256"
            }
          ],
          "internalType": "struct MyEpicGame.BigBoss",
          "name": "",
          "type": "tuple"
        }
      ],
      "stateMutability": "view",
      "type": "function"
    },
    {
      "inputs": [
        {
          "internalType": "address",
          "name": "owner",
          "type": "address"
        },
        {
          "internalType": "address",
          "name": "operator",
          "type": "address"
        }
      ],
      "name": "isApprovedForAll",
      "outputs": [
        {
          "internalType": "bool",
          "name": "",
          "type": "bool"
        }
      ],
      "stateMutability": "view",
      "type": "function"
    },
    {
      "inputs": [
        {
          "internalType": "uint256",
          "name": "_characterIndex",
          "type": "uint256"
        }
      ],
      "name": "mintCharacterNFT",
      "outputs": [],
      "stateMutability": "nonpayable",
      "type": "function"
    },
    {
      "inputs": [],
      "name": "name",
      "outputs": [
        {
          "internalType": "string",
          "name": "",
          "type": "string"
        }
      ],
      "stateMutability": "view",
      "type": "function"
    },
    {
      "inputs": [
        {
          "internalType": "uint256",
          "name": "",
          "type": "uint256"
        }
      ],
      "name": "nftHolderAttributes",
      "outputs": [
        {
          "internalType": "uint256",
          "name": "characterIndex",
          "type": "uint256"
        },
        {
          "internalType": "string",
          "name": "name",
          "type": "string"
        },
        {
          "internalType": "string",
          "name": "imageURI",
          "type": "string"
        },
        {
          "internalType": "uint256",
          "name": "hp",
          "type": "uint256"
        },
        {
          "internalType": "uint256",
          "name": "maxHp",
          "type": "uint256"
        },
        {
          "internalType": "uint256",
          "name": "attackDamage",
          "type": "uint256"
        }
      ],
      "stateMutability": "view",
      "type": "function"
    },
    {
      "inputs": [
        {
          "internalType": "address",
          "name": "",
          "type": "address"
        }
      ],
      "name": "nftHolders",
      "outputs": [
        {
          "internalType": "uint256",
          "name": "",
          "type": "uint256"
        }
      ],
      "stateMutability": "view",
      "type": "function"
    },
    {
      "inputs": [
        {
          "internalType": "uint256",
          "name": "tokenId",
          "type": "uint256"
        }
      ],
      "name": "ownerOf",
      "outputs": [
        {
          "internalType": "address",
          "name": "",
          "type": "address"
        }
      ],
      "stateMutability": "view",
      "type": "function"
    },
    {
      "inputs": [
        {
          "internalType": "address",
          "name": "from",
          "type": "address"
        },
        {
          "internalType": "address",
          "name": "to",
          "type": "address"
        },
        {
          "internalType": "uint256",
          "name": "tokenId",
          "type": "uint256"
        }
      ],
      "name": "safeTransferFrom",
      "outputs": [],
      "stateMutability": "nonpayable",
      "type": "function"
    },
    {
      "inputs": [
        {
          "internalType": "address",
          "name": "from",
          "type": "address"
        },
        {
          "internalType": "address",
          "name": "to",
          "type": "address"
        },
        {
          "internalType": "uint256",
          "name": "tokenId",
          "type": "uint256"
        },
        {
          "internalType": "bytes",
          "name": "_data",
          "type": "bytes"
        }
      ],
      "name": "safeTransferFrom",
      "outputs": [],
      "stateMutability": "nonpayable",
      "type": "function"
    },
    {
      "inputs": [
        {
          "internalType": "address",
          "name": "operator",
          "type": "address"
        },
        {
          "internalType": "bool",
          "name": "approved",
          "type": "bool"
        }
      ],
      "name": "setApprovalForAll",
      "outputs": [],
      "stateMutability": "nonpayable",
      "type": "function"
    },
    {
      "inputs": [
        {
          "internalType": "bytes4",
          "name": "interfaceId",
          "type": "bytes4"
        }
      ],
      "name": "supportsInterface",
      "outputs": [
        {
          "internalType": "bool",
          "name": "",
          "type": "bool"
        }
      ],
      "stateMutability": "view",
      "type": "function"
    },
    {
      "inputs": [],
      "name": "symbol",
      "outputs": [
        {
          "internalType": "string",
          "name": "",
          "type": "string"
        }
      ],
      "stateMutability": "view",
      "type": "function"
    },
    {
      "inputs": [
        {
          "internalType": "uint256",
          "name": "_tokenId",
          "type": "uint256"
        }
      ],
      "name": "tokenURI",
      "outputs": [
        {
          "internalType": "string",
          "name": "",
          "type": "string"
        }
      ],
      "stateMutability": "view",
      "type": "function"
    },
    {
      "inputs": [
        {
          "internalType": "address",
          "name": "from",
          "type": "address"
        },
        {
          "internalType": "address",
          "name": "to",
          "type": "address"
        },
        {
          "internalType": "uint256",
          "name": "tokenId",
          "type": "uint256"
        }
      ],
      "name": "transferFrom",
      "outputs": [],
      "stateMutability": "nonpayable",
      "type": "function"
    }
  ],
  "bytecode": "0x60806040523480156200001157600080fd5b506040516200589338038062005893833981810160405281019062000037919062000a85565b6040518060400160405280600681526020017f4865726f657300000000000000000000000000000000000000000000000000008152506040518060400160405280600481526020017f4845524f000000000000000000000000000000000000000000000000000000008152508160009080519060200190620000bb929190620007ed565b508060019080519060200190620000d4929190620007ed565b5050506040518060a0016040528085815260200184815260200183815260200183815260200182815250600660008201518160000190805190602001906200011e929190620007ed565b5060208201518160010190805190602001906200013d929190620007ed565b50604082015181600201556060820151816003015560808201518160040155905050620002c06040518060600160405280602a815260200162005869602a9139600660000180546200018f9062000e08565b80601f0160208091040260200160405190810160405280929190818152602001828054620001bd9062000e08565b80156200020e5780601f10620001e2576101008083540402835291602001916200020e565b820191906000526020600020905b815481529060010190602001808311620001f057829003601f168201915b5050505050600660020154600660010180546200022b9062000e08565b80601f0160208091040260200160405190810160405280929190818152602001828054620002599062000e08565b8015620002aa5780601f106200027e57610100808354040283529160200191620002aa565b820191906000526020600020905b8154815290600101906020018083116200028c57829003601f168201915b50505050506200070260201b62001bd51760201c565b60005b8851811015620006dc57600c6040518060c001604052808381526020018b84815181106200031a577f4e487b7100000000000000000000000000000000000000000000000000000000600052603260045260246000fd5b602002602001015181526020018a848151811062000361577f4e487b7100000000000000000000000000000000000000000000000000000000600052603260045260246000fd5b60200260200101518152602001898481518110620003a8577f4e487b7100000000000000000000000000000000000000000000000000000000600052603260045260246000fd5b60200260200101518152602001898481518110620003ef577f4e487b7100000000000000000000000000000000000000000000000000000000600052603260045260246000fd5b6020026020010151815260200188848151811062000436577f4e487b7100000000000000000000000000000000000000000000000000000000600052603260045260246000fd5b6020026020010151815250908060018154018082558091505060019003906000526020600020906006020160009091909190915060008201518160000155602082015181600101908051906020019062000492929190620007ed565b506040820151816002019080519060200190620004b1929190620007ed565b50606082015181600301556080820151816004015560a0820151816005015550506000600c82815481106200050f577f4e487b7100000000000000000000000000000000000000000000000000000000600052603260045260246000fd5b90600052602060002090600602016040518060c001604052908160008201548152602001600182018054620005449062000e08565b80601f0160208091040260200160405190810160405280929190818152602001828054620005729062000e08565b8015620005c35780601f106200059757610100808354040283529160200191620005c3565b820191906000526020600020905b815481529060010190602001808311620005a557829003601f168201915b50505050508152602001600282018054620005de9062000e08565b80601f01602080910402602001604051908101604052809291908181526020018280546200060c9062000e08565b80156200065d5780601f1062000631576101008083540402835291602001916200065d565b820191906000526020600020905b8154815290600101906020018083116200063f57829003601f168201915b5050505050815260200160038201548152602001600482015481526020016005820154815250509050620006c460405180606001604052806025815260200162005844602591398260200151836060015184604001516200070260201b62001bd51760201c565b50600181620006d4919062000d6b565b9050620002c3565b50620006f4600b620007ae60201b62001c771760201c565b505050505050505062000f2c565b620007a8848484846040516024016200071f949392919062000c30565b6040516020818303038152906040527f8d142cdd000000000000000000000000000000000000000000000000000000007bffffffffffffffffffffffffffffffffffffffffffffffffffffffff19166020820180517bffffffffffffffffffffffffffffffffffffffffffffffffffffffff8381831617835250505050620007c460201b60201c565b50505050565b6001816000016000828254019250508190555050565b60008151905060006a636f6e736f6c652e6c6f679050602083016000808483855afa5050505050565b828054620007fb9062000e08565b90600052602060002090601f0160209004810192826200081f57600085556200086b565b82601f106200083a57805160ff19168380011785556200086b565b828001600101855582156200086b579182015b828111156200086a5782518255916020019190600101906200084d565b5b5090506200087a91906200087e565b5090565b5b80821115620008995760008160009055506001016200087f565b5090565b6000620008b4620008ae8462000cbb565b62000c92565b90508083825260208201905082856020860282011115620008d457600080fd5b60005b858110156200092357815167ffffffffffffffff811115620008f857600080fd5b80860162000907898262000a41565b85526020850194506020840193505050600181019050620008d7565b5050509392505050565b6000620009446200093e8462000cea565b62000c92565b905080838252602082019050828560208602820111156200096457600080fd5b60005b858110156200099857816200097d888262000a6e565b84526020840193506020830192505060018101905062000967565b5050509392505050565b6000620009b9620009b38462000d19565b62000c92565b905082815260208101848484011115620009d257600080fd5b620009df84828562000dd2565b509392505050565b600082601f830112620009f957600080fd5b815162000a0b8482602086016200089d565b91505092915050565b600082601f83011262000a2657600080fd5b815162000a388482602086016200092d565b91505092915050565b600082601f83011262000a5357600080fd5b815162000a65848260208601620009a2565b91505092915050565b60008151905062000a7f8162000f12565b92915050565b600080600080600080600080610100898b03121562000aa357600080fd5b600089015167ffffffffffffffff81111562000abe57600080fd5b62000acc8b828c01620009e7565b985050602089015167ffffffffffffffff81111562000aea57600080fd5b62000af88b828c01620009e7565b975050604089015167ffffffffffffffff81111562000b1657600080fd5b62000b248b828c0162000a14565b965050606089015167ffffffffffffffff81111562000b4257600080fd5b62000b508b828c0162000a14565b955050608089015167ffffffffffffffff81111562000b6e57600080fd5b62000b7c8b828c0162000a41565b94505060a089015167ffffffffffffffff81111562000b9a57600080fd5b62000ba88b828c0162000a41565b93505060c062000bbb8b828c0162000a6e565b92505060e062000bce8b828c0162000a6e565b9150509295985092959890939650565b600062000beb8262000d4f565b62000bf7818562000d5a565b935062000c0981856020860162000dd2565b62000c148162000f01565b840191505092915050565b62000c2a8162000dc8565b82525050565b6000608082019050818103600083015262000c4c818762000bde565b9050818103602083015262000c62818662000bde565b905062000c73604083018562000c1f565b818103606083015262000c87818462000bde565b905095945050505050565b600062000c9e62000cb1565b905062000cac828262000e3e565b919050565b6000604051905090565b600067ffffffffffffffff82111562000cd95762000cd862000ed2565b5b602082029050602081019050919050565b600067ffffffffffffffff82111562000d085762000d0762000ed2565b5b602082029050602081019050919050565b600067ffffffffffffffff82111562000d375762000d3662000ed2565b5b62000d428262000f01565b9050602081019050919050565b600081519050919050565b600082825260208201905092915050565b600062000d788262000dc8565b915062000d858362000dc8565b9250827fffffffffffffffffffffffffffffffffffffffffffffffffffffffffffffffff0382111562000dbd5762000dbc62000e74565b5b828201905092915050565b6000819050919050565b60005b8381101562000df257808201518184015260208101905062000dd5565b8381111562000e02576000848401525b50505050565b6000600282049050600182168062000e2157607f821691505b6020821081141562000e385762000e3762000ea3565b5b50919050565b62000e498262000f01565b810181811067ffffffffffffffff8211171562000e6b5762000e6a62000ed2565b5b80604052505050565b7f4e487b7100000000000000000000000000000000000000000000000000000000600052601160045260246000fd5b7f4e487b7100000000000000000000000000000000000000000000000000000000600052602260045260246000fd5b7f4e487b7100000000000000000000000000000000000000000000000000000000600052604160045260246000fd5b6000601f19601f8301169050919050565b62000f1d8162000dc8565b811462000f2957600080fd5b50565b6149088062000f3c6000396000f3fe608060405234801561001057600080fd5b50600436106101375760003560e01c806395d89b41116100b8578063b953084e1161007c578063b953084e14610369578063c87b56dd14610387578063c8cf27f4146103b7578063d4f24c5b146103d5578063e985e9c5146103df578063f8b81ef71461040f57610137565b806395d89b41146102bc57806398da4c95146102da578063a22cb4651461030f578063a9c326791461032b578063b88d4fde1461034d57610137565b806323b872dd116100ff57806323b872dd146101f457806342842e0e146102105780636352211e1461022c57806370a082311461025c5780637df124a11461028c57610137565b806301ffc9a71461013c5780630665f9611461016c57806306fdde031461018a578063081812fc146101a8578063095ea7b3146101d8575b600080fd5b61015660048036038101906101519190612ffd565b61042b565b6040516101639190613862565b60405180910390f35b61017461050d565b6040516101819190613bfb565b60405180910390f35b610192610669565b60405161019f919061387d565b60405180910390f35b6101c260048036038101906101bd919061304f565b6106fb565b6040516101cf91906137a2565b60405180910390f35b6101f260048036038101906101ed9190612fc1565b610780565b005b61020e60048036038101906102099190612ebb565b610898565b005b61022a60048036038101906102259190612ebb565b6108f8565b005b6102466004803603810190610241919061304f565b610918565b60405161025391906137a2565b60405180910390f35b61027660048036038101906102719190612e56565b6109ca565b6040516102839190613c3f565b60405180910390f35b6102a660048036038101906102a19190612e56565b610a82565b6040516102b39190613c3f565b60405180910390f35b6102c4610a9a565b6040516102d1919061387d565b60405180910390f35b6102f460048036038101906102ef919061304f565b610b2c565b60405161030696959493929190613c5a565b60405180910390f35b61032960048036038101906103249190612f85565b610c78565b005b610333610c8e565b60405161034495949392919061394c565b60405180910390f35b61036760048036038101906103629190612f0a565b610dc2565b005b610371610e24565b60405161037e9190613840565b60405180910390f35b6103a1600480360381019061039c919061304f565b610fcf565b6040516103ae919061387d565b60405180910390f35b6103bf6111ea565b6040516103cc9190613c1d565b60405180910390f35b6103dd6113c2565b005b6103f960048036038101906103f49190612e7f565b61174d565b6040516104069190613862565b60405180910390f35b6104296004803603810190610424919061304f565b6117e1565b005b60007f80ac58cd000000000000000000000000000000000000000000000000000000007bffffffffffffffffffffffffffffffffffffffffffffffffffffffff1916827bffffffffffffffffffffffffffffffffffffffffffffffffffffffff191614806104f657507f5b5e139f000000000000000000000000000000000000000000000000000000007bffffffffffffffffffffffffffffffffffffffffffffffffffffffff1916827bffffffffffffffffffffffffffffffffffffffffffffffffffffffff1916145b80610506575061050582611c8d565b5b9050919050565b610515612c7d565b60066040518060a001604052908160008201805461053290613fa0565b80601f016020809104026020016040519081016040528092919081815260200182805461055e90613fa0565b80156105ab5780601f10610580576101008083540402835291602001916105ab565b820191906000526020600020905b81548152906001019060200180831161058e57829003601f168201915b505050505081526020016001820180546105c490613fa0565b80601f01602080910402602001604051908101604052809291908181526020018280546105f090613fa0565b801561063d5780601f106106125761010080835404028352916020019161063d565b820191906000526020600020905b81548152906001019060200180831161062057829003601f168201915b505050505081526020016002820154815260200160038201548152602001600482015481525050905090565b60606000805461067890613fa0565b80601f01602080910402602001604051908101604052809291908181526020018280546106a490613fa0565b80156106f15780601f106106c6576101008083540402835291602001916106f1565b820191906000526020600020905b8154815290600101906020018083116106d457829003601f168201915b5050505050905090565b600061070682611cf7565b610745576040517f08c379a000000000000000000000000000000000000000000000000000000000815260040161073c90613b7b565b60405180910390fd5b6004600083815260200190815260200160002060009054906101000a900473ffffffffffffffffffffffffffffffffffffffff169050919050565b600061078b82610918565b90508073ffffffffffffffffffffffffffffffffffffffff168373ffffffffffffffffffffffffffffffffffffffff1614156107fc576040517f08c379a00000000000000000000000000000000000000000000000000000000081526004016107f390613bbb565b60405180910390fd5b8073ffffffffffffffffffffffffffffffffffffffff1661081b611d63565b73ffffffffffffffffffffffffffffffffffffffff16148061084a575061084981610844611d63565b61174d565b5b610889576040517f08c379a000000000000000000000000000000000000000000000000000000000815260040161088090613adb565b60405180910390fd5b6108938383611d6b565b505050565b6108a96108a3611d63565b82611e24565b6108e8576040517f08c379a00000000000000000000000000000000000000000000000000000000081526004016108df90613bdb565b60405180910390fd5b6108f3838383611f02565b505050565b61091383838360405180602001604052806000815250610dc2565b505050565b6000806002600084815260200190815260200160002060009054906101000a900473ffffffffffffffffffffffffffffffffffffffff169050600073ffffffffffffffffffffffffffffffffffffffff168173ffffffffffffffffffffffffffffffffffffffff1614156109c1576040517f08c379a00000000000000000000000000000000000000000000000000000000081526004016109b890613b1b565b60405180910390fd5b80915050919050565b60008073ffffffffffffffffffffffffffffffffffffffff168273ffffffffffffffffffffffffffffffffffffffff161415610a3b576040517f08c379a0000000000000000000000000000000000000000000000000000000008152600401610a3290613afb565b60405180910390fd5b600360008373ffffffffffffffffffffffffffffffffffffffff1673ffffffffffffffffffffffffffffffffffffffff168152602001908152602001600020549050919050565b600e6020528060005260406000206000915090505481565b606060018054610aa990613fa0565b80601f0160208091040260200160405190810160405280929190818152602001828054610ad590613fa0565b8015610b225780601f10610af757610100808354040283529160200191610b22565b820191906000526020600020905b815481529060010190602001808311610b0557829003601f168201915b5050505050905090565b600d602052806000526040600020600091509050806000015490806001018054610b5590613fa0565b80601f0160208091040260200160405190810160405280929190818152602001828054610b8190613fa0565b8015610bce5780601f10610ba357610100808354040283529160200191610bce565b820191906000526020600020905b815481529060010190602001808311610bb157829003601f168201915b505050505090806002018054610be390613fa0565b80601f0160208091040260200160405190810160405280929190818152602001828054610c0f90613fa0565b8015610c5c5780601f10610c3157610100808354040283529160200191610c5c565b820191906000526020600020905b815481529060010190602001808311610c3f57829003601f168201915b5050505050908060030154908060040154908060050154905086565b610c8a610c83611d63565b838361215e565b5050565b6006806000018054610c9f90613fa0565b80601f0160208091040260200160405190810160405280929190818152602001828054610ccb90613fa0565b8015610d185780601f10610ced57610100808354040283529160200191610d18565b820191906000526020600020905b815481529060010190602001808311610cfb57829003601f168201915b505050505090806001018054610d2d90613fa0565b80601f0160208091040260200160405190810160405280929190818152602001828054610d5990613fa0565b8015610da65780601f10610d7b57610100808354040283529160200191610da6565b820191906000526020600020905b815481529060010190602001808311610d8957829003601f168201915b5050505050908060020154908060030154908060040154905085565b610dd3610dcd611d63565b83611e24565b610e12576040517f08c379a0000000000000000000000000000000000000000000000000000000008152600401610e0990613bdb565b60405180910390fd5b610e1e848484846122cb565b50505050565b6060600c805480602002602001604051908101604052809291908181526020016000905b82821015610fc657838290600052602060002090600602016040518060c001604052908160008201548152602001600182018054610e8590613fa0565b80601f0160208091040260200160405190810160405280929190818152602001828054610eb190613fa0565b8015610efe5780601f10610ed357610100808354040283529160200191610efe565b820191906000526020600020905b815481529060010190602001808311610ee157829003601f168201915b50505050508152602001600282018054610f1790613fa0565b80601f0160208091040260200160405190810160405280929190818152602001828054610f4390613fa0565b8015610f905780601f10610f6557610100808354040283529160200191610f90565b820191906000526020600020905b815481529060010190602001808311610f7357829003601f168201915b50505050508152602001600382015481526020016004820154815260200160058201548152505081526020019060010190610e48565b50505050905090565b60606000600d60008481526020019081526020016000206040518060c00160405290816000820154815260200160018201805461100b90613fa0565b80601f016020809104026020016040519081016040528092919081815260200182805461103790613fa0565b80156110845780601f1061105957610100808354040283529160200191611084565b820191906000526020600020905b81548152906001019060200180831161106757829003601f168201915b5050505050815260200160028201805461109d90613fa0565b80601f01602080910402602001604051908101604052809291908181526020018280546110c990613fa0565b80156111165780601f106110eb57610100808354040283529160200191611116565b820191906000526020600020905b8154815290600101906020018083116110f957829003601f168201915b5050505050815260200160038201548152602001600482015481526020016005820154815250509050600061114e8260600151612327565b9050600061115f8360800151612327565b905060006111708460a00151612327565b905060006111b6856020015161118589612327565b87604001518787876040516020016111a2969594939291906136db565b6040516020818303038152906040526124d4565b90506000816040516020016111cb9190613780565b6040516020818303038152906040529050809650505050505050919050565b6111f2612cac565b6000600e60003373ffffffffffffffffffffffffffffffffffffffff1673ffffffffffffffffffffffffffffffffffffffff16815260200190815260200160002054905060008111156113b157600d60008281526020019081526020016000206040518060c00160405290816000820154815260200160018201805461127790613fa0565b80601f01602080910402602001604051908101604052809291908181526020018280546112a390613fa0565b80156112f05780601f106112c5576101008083540402835291602001916112f0565b820191906000526020600020905b8154815290600101906020018083116112d357829003601f168201915b5050505050815260200160028201805461130990613fa0565b80601f016020809104026020016040519081016040528092919081815260200182805461133590613fa0565b80156113825780601f1061135757610100808354040283529160200191611382565b820191906000526020600020905b81548152906001019060200180831161136557829003601f168201915b5050505050815260200160038201548152602001600482015481526020016005820154815250509150506113bf565b6113b9612cac565b80925050505b90565b6000600e60003373ffffffffffffffffffffffffffffffffffffffff1673ffffffffffffffffffffffffffffffffffffffff1681526020019081526020016000205490506000600d600083815260200190815260200160002090506114d56040518060600160405280603c8152602001614897603c913982600101805461144890613fa0565b80601f016020809104026020016040519081016040528092919081815260200182805461147490613fa0565b80156114c15780601f10611496576101008083540402835291602001916114c1565b820191906000526020600020905b8154815290600101906020018083116114a457829003601f168201915b505050505083600301548460050154612673565b6115ad6040518060400160405280601b81526020017f426f73732025732068617320257320485020616e6420257320414400000000008152506006600001805461151e90613fa0565b80601f016020809104026020016040519081016040528092919081815260200182805461154a90613fa0565b80156115975780601f1061156c57610100808354040283529160200191611597565b820191906000526020600020905b81548152906001019060200180831161157a57829003601f168201915b5050505050600660020154600660040154612673565b60008160030154116115f4576040517f08c379a00000000000000000000000000000000000000000000000000000000081526004016115eb90613b3b565b60405180910390fd5b60006006600201541161163c576040517f08c379a000000000000000000000000000000000000000000000000000000000815260040161163390613a3b565b60405180910390fd5b8060050154600660020154101561165d57600060066002018190555061167c565b80600501546006600201546116729190613eb6565b6006600201819055505b6006600401548160030154101561169c57600081600301819055506116ba565b60066004015481600301546116b19190613eb6565b81600301819055505b6116e16040518060600160405280602581526020016147dc60259139600660020154612715565b611707604051806060016040528060288152602001614841602891398260030154612715565b7f838ab28464562786a6c4ab2311964b82fa60bd9b14aa7e856af1f3f18d41a4146006600201548260030154604051611741929190613cc9565b60405180910390a15050565b6000600560008473ffffffffffffffffffffffffffffffffffffffff1673ffffffffffffffffffffffffffffffffffffffff16815260200190815260200160002060008373ffffffffffffffffffffffffffffffffffffffff1673ffffffffffffffffffffffffffffffffffffffff16815260200190815260200160002060009054906101000a900460ff16905092915050565b60006117ed600b6127b1565b90506117f933826127bf565b6040518060c00160405280838152602001600c8481548110611844577f4e487b7100000000000000000000000000000000000000000000000000000000600052603260045260246000fd5b9060005260206000209060060201600101805461186090613fa0565b80601f016020809104026020016040519081016040528092919081815260200182805461188c90613fa0565b80156118d95780601f106118ae576101008083540402835291602001916118d9565b820191906000526020600020905b8154815290600101906020018083116118bc57829003601f168201915b50505050508152602001600c848154811061191d577f4e487b7100000000000000000000000000000000000000000000000000000000600052603260045260246000fd5b9060005260206000209060060201600201805461193990613fa0565b80601f016020809104026020016040519081016040528092919081815260200182805461196590613fa0565b80156119b25780601f10611987576101008083540402835291602001916119b2565b820191906000526020600020905b81548152906001019060200180831161199557829003601f168201915b50505050508152602001600c84815481106119f6577f4e487b7100000000000000000000000000000000000000000000000000000000600052603260045260246000fd5b9060005260206000209060060201600301548152602001600c8481548110611a47577f4e487b7100000000000000000000000000000000000000000000000000000000600052603260045260246000fd5b9060005260206000209060060201600401548152602001600c8481548110611a98577f4e487b7100000000000000000000000000000000000000000000000000000000600052603260045260246000fd5b906000526020600020906006020160050154815250600d6000838152602001908152602001600020600082015181600001556020820151816001019080519060200190611ae6929190612ce2565b506040820151816002019080519060200190611b03929190612ce2565b50606082015181600301556080820151816004015560a08201518160050155905050611b486040518060600160405280602e8152602001614869602e913982846127dd565b80600e60003373ffffffffffffffffffffffffffffffffffffffff1673ffffffffffffffffffffffffffffffffffffffff16815260200190815260200160002081905550611b96600b611c77565b7f4bc303fd457a97b4691b9af582ce71868a3d258638c8d4f8c60988a0f0bfb8cd338284604051611bc993929190613809565b60405180910390a15050565b611c7184848484604051602401611bef949392919061389f565b6040516020818303038152906040527f8d142cdd000000000000000000000000000000000000000000000000000000007bffffffffffffffffffffffffffffffffffffffffffffffffffffffff19166020820180517bffffffffffffffffffffffffffffffffffffffffffffffffffffffff838183161783525050505061287c565b50505050565b6001816000016000828254019250508190555050565b60007f01ffc9a7000000000000000000000000000000000000000000000000000000007bffffffffffffffffffffffffffffffffffffffffffffffffffffffff1916827bffffffffffffffffffffffffffffffffffffffffffffffffffffffff1916149050919050565b60008073ffffffffffffffffffffffffffffffffffffffff166002600084815260200190815260200160002060009054906101000a900473ffffffffffffffffffffffffffffffffffffffff1673ffffffffffffffffffffffffffffffffffffffff1614159050919050565b600033905090565b816004600083815260200190815260200160002060006101000a81548173ffffffffffffffffffffffffffffffffffffffff021916908373ffffffffffffffffffffffffffffffffffffffff160217905550808273ffffffffffffffffffffffffffffffffffffffff16611dde83610918565b73ffffffffffffffffffffffffffffffffffffffff167f8c5be1e5ebec7d5bd14f71427d1e84f3dd0314c0f7b2291e5b200ac8c7c3b92560405160405180910390a45050565b6000611e2f82611cf7565b611e6e576040517f08c379a0000000000000000000000000000000000000000000000000000000008152600401611e6590613abb565b60405180910390fd5b6000611e7983610918565b90508073ffffffffffffffffffffffffffffffffffffffff168473ffffffffffffffffffffffffffffffffffffffff161480611ee857508373ffffffffffffffffffffffffffffffffffffffff16611ed0846106fb565b73ffffffffffffffffffffffffffffffffffffffff16145b80611ef95750611ef8818561174d565b5b91505092915050565b8273ffffffffffffffffffffffffffffffffffffffff16611f2282610918565b73ffffffffffffffffffffffffffffffffffffffff1614611f78576040517f08c379a0000000000000000000000000000000000000000000000000000000008152600401611f6f90613b9b565b60405180910390fd5b600073ffffffffffffffffffffffffffffffffffffffff168273ffffffffffffffffffffffffffffffffffffffff161415611fe8576040517f08c379a0000000000000000000000000000000000000000000000000000000008152600401611fdf90613a7b565b60405180910390fd5b611ff38383836128a5565b611ffe600082611d6b565b6001600360008573ffffffffffffffffffffffffffffffffffffffff1673ffffffffffffffffffffffffffffffffffffffff168152602001908152602001600020600082825461204e9190613eb6565b925050819055506001600360008473ffffffffffffffffffffffffffffffffffffffff1673ffffffffffffffffffffffffffffffffffffffff16815260200190815260200160002060008282546120a59190613dd5565b92505081905550816002600083815260200190815260200160002060006101000a81548173ffffffffffffffffffffffffffffffffffffffff021916908373ffffffffffffffffffffffffffffffffffffffff160217905550808273ffffffffffffffffffffffffffffffffffffffff168473ffffffffffffffffffffffffffffffffffffffff167fddf252ad1be2c89b69c2b068fc378daa952ba7f163c4a11628f55a4df523b3ef60405160405180910390a4505050565b8173ffffffffffffffffffffffffffffffffffffffff168373ffffffffffffffffffffffffffffffffffffffff1614156121cd576040517f08c379a00000000000000000000000000000000000000000000000000000000081526004016121c490613a9b565b60405180910390fd5b80600560008573ffffffffffffffffffffffffffffffffffffffff1673ffffffffffffffffffffffffffffffffffffffff16815260200190815260200160002060008473ffffffffffffffffffffffffffffffffffffffff1673ffffffffffffffffffffffffffffffffffffffff16815260200190815260200160002060006101000a81548160ff0219169083151502179055508173ffffffffffffffffffffffffffffffffffffffff168373ffffffffffffffffffffffffffffffffffffffff167f17307eab39ab6107e8899845ad3d59bd9653f200f220920489ca2b5937696c31836040516122be9190613862565b60405180910390a3505050565b6122d6848484611f02565b6122e2848484846128aa565b612321576040517f08c379a000000000000000000000000000000000000000000000000000000000815260040161231890613a1b565b60405180910390fd5b50505050565b6060600082141561236f576040518060400160405280600181526020017f300000000000000000000000000000000000000000000000000000000000000081525090506124cf565b600082905060005b600082146123a157808061238a90614003565b915050600a8261239a9190613e2b565b9150612377565b60008167ffffffffffffffff8111156123e3577f4e487b7100000000000000000000000000000000000000000000000000000000600052604160045260246000fd5b6040519080825280601f01601f1916602001820160405280156124155781602001600182028036833780820191505090505b5090505b600085146124c85760018261242e9190613eb6565b9150600a8561243d919061404c565b60306124499190613dd5565b60f81b818381518110612485577f4e487b7100000000000000000000000000000000000000000000000000000000600052603260045260246000fd5b60200101907effffffffffffffffffffffffffffffffffffffffffffffffffffffffffffff1916908160001a905350600a856124c19190613e2b565b9450612419565b8093505050505b919050565b60606000825114156124f75760405180602001604052806000815250905061266e565b600060405180606001604052806040815260200161480160409139905060006003600285516125269190613dd5565b6125309190613e2b565b600461253c9190613e5c565b9050600060208261254d9190613dd5565b67ffffffffffffffff81111561258c577f4e487b7100000000000000000000000000000000000000000000000000000000600052604160045260246000fd5b6040519080825280601f01601f1916602001820160405280156125be5781602001600182028036833780820191505090505b509050818152600183018586518101602084015b8183101561262d576003830192508251603f8160121c168501518253600182019150603f81600c1c168501518253600182019150603f8160061c168501518253600182019150603f81168501518253600182019150506125d2565b600389510660018114612647576002811461265757612662565b613d3d60f01b6002830352612662565b603d60f81b60018303525b50505050508093505050505b919050565b61270f8484848460405160240161268d94939291906138f9565b6040516020818303038152906040527fd5cf17d0000000000000000000000000000000000000000000000000000000007bffffffffffffffffffffffffffffffffffffffffffffffffffffffff19166020820180517bffffffffffffffffffffffffffffffffffffffffffffffffffffffff838183161783525050505061287c565b50505050565b6127ad828260405160240161272b9291906139ad565b6040516020818303038152906040527f9710a9d0000000000000000000000000000000000000000000000000000000007bffffffffffffffffffffffffffffffffffffffffffffffffffffffff19166020820180517bffffffffffffffffffffffffffffffffffffffffffffffffffffffff838183161783525050505061287c565b5050565b600081600001549050919050565b6127d9828260405180602001604052806000815250612a41565b5050565b6128778383836040516024016127f5939291906139dd565b6040516020818303038152906040527f969cdd03000000000000000000000000000000000000000000000000000000007bffffffffffffffffffffffffffffffffffffffffffffffffffffffff19166020820180517bffffffffffffffffffffffffffffffffffffffffffffffffffffffff838183161783525050505061287c565b505050565b60008151905060006a636f6e736f6c652e6c6f679050602083016000808483855afa5050505050565b505050565b60006128cb8473ffffffffffffffffffffffffffffffffffffffff16612a9c565b15612a34578373ffffffffffffffffffffffffffffffffffffffff1663150b7a026128f4611d63565b8786866040518563ffffffff1660e01b815260040161291694939291906137bd565b602060405180830381600087803b15801561293057600080fd5b505af192505050801561296157506040513d601f19601f8201168201806040525081019061295e9190613026565b60015b6129e4573d8060008114612991576040519150601f19603f3d011682016040523d82523d6000602084013e612996565b606091505b506000815114156129dc576040517f08c379a00000000000000000000000000000000000000000000000000000000081526004016129d390613a1b565b60405180910390fd5b805181602001fd5b63150b7a0260e01b7bffffffffffffffffffffffffffffffffffffffffffffffffffffffff1916817bffffffffffffffffffffffffffffffffffffffffffffffffffffffff191614915050612a39565b600190505b949350505050565b612a4b8383612aaf565b612a5860008484846128aa565b612a97576040517f08c379a0000000000000000000000000000000000000000000000000000000008152600401612a8e90613a1b565b60405180910390fd5b505050565b600080823b905060008111915050919050565b600073ffffffffffffffffffffffffffffffffffffffff168273ffffffffffffffffffffffffffffffffffffffff161415612b1f576040517f08c379a0000000000000000000000000000000000000000000000000000000008152600401612b1690613b5b565b60405180910390fd5b612b2881611cf7565b15612b68576040517f08c379a0000000000000000000000000000000000000000000000000000000008152600401612b5f90613a5b565b60405180910390fd5b612b74600083836128a5565b6001600360008473ffffffffffffffffffffffffffffffffffffffff1673ffffffffffffffffffffffffffffffffffffffff1681526020019081526020016000206000828254612bc49190613dd5565b92505081905550816002600083815260200190815260200160002060006101000a81548173ffffffffffffffffffffffffffffffffffffffff021916908373ffffffffffffffffffffffffffffffffffffffff160217905550808273ffffffffffffffffffffffffffffffffffffffff16600073ffffffffffffffffffffffffffffffffffffffff167fddf252ad1be2c89b69c2b068fc378daa952ba7f163c4a11628f55a4df523b3ef60405160405180910390a45050565b6040518060a0016040528060608152602001606081526020016000815260200160008152602001600081525090565b6040518060c001604052806000815260200160608152602001606081526020016000815260200160008152602001600081525090565b828054612cee90613fa0565b90600052602060002090601f016020900481019282612d105760008555612d57565b82601f10612d2957805160ff1916838001178555612d57565b82800160010185558215612d57579182015b82811115612d56578251825591602001919060010190612d3b565b5b509050612d649190612d68565b5090565b5b80821115612d81576000816000905550600101612d69565b5090565b6000612d98612d9384613d17565b613cf2565b905082815260208101848484011115612db057600080fd5b612dbb848285613f5e565b509392505050565b600081359050612dd28161477f565b92915050565b600081359050612de781614796565b92915050565b600081359050612dfc816147ad565b92915050565b600081519050612e11816147ad565b92915050565b600082601f830112612e2857600080fd5b8135612e38848260208601612d85565b91505092915050565b600081359050612e50816147c4565b92915050565b600060208284031215612e6857600080fd5b6000612e7684828501612dc3565b91505092915050565b60008060408385031215612e9257600080fd5b6000612ea085828601612dc3565b9250506020612eb185828601612dc3565b9150509250929050565b600080600060608486031215612ed057600080fd5b6000612ede86828701612dc3565b9350506020612eef86828701612dc3565b9250506040612f0086828701612e41565b9150509250925092565b60008060008060808587031215612f2057600080fd5b6000612f2e87828801612dc3565b9450506020612f3f87828801612dc3565b9350506040612f5087828801612e41565b925050606085013567ffffffffffffffff811115612f6d57600080fd5b612f7987828801612e17565b91505092959194509250565b60008060408385031215612f9857600080fd5b6000612fa685828601612dc3565b9250506020612fb785828601612dd8565b9150509250929050565b60008060408385031215612fd457600080fd5b6000612fe285828601612dc3565b9250506020612ff385828601612e41565b9150509250929050565b60006020828403121561300f57600080fd5b600061301d84828501612ded565b91505092915050565b60006020828403121561303857600080fd5b600061304684828501612e02565b91505092915050565b60006020828403121561306157600080fd5b600061306f84828501612e41565b91505092915050565b6000613084838361359d565b905092915050565b61309581613eea565b82525050565b60006130a682613d58565b6130b08185613d86565b9350836020820285016130c285613d48565b8060005b858110156130fe57848403895281516130df8582613078565b94506130ea83613d79565b925060208a019950506001810190506130c6565b50829750879550505050505092915050565b61311981613efc565b82525050565b600061312a82613d63565b6131348185613d97565b9350613144818560208601613f6d565b61314d81614139565b840191505092915050565b600061316382613d6e565b61316d8185613da8565b935061317d818560208601613f6d565b61318681614139565b840191505092915050565b600061319c82613d6e565b6131a68185613db9565b93506131b6818560208601613f6d565b6131bf81614139565b840191505092915050565b60006131d582613d6e565b6131df8185613dca565b93506131ef818560208601613f6d565b80840191505092915050565b6000613208600b83613dca565b91506132138261414a565b600b82019050919050565b600061322b603283613db9565b915061323682614173565b604082019050919050565b600061324e602883613db9565b9150613259826141c2565b604082019050919050565b6000613271601c83613db9565b915061327c82614211565b602082019050919050565b6000613294600e83613dca565b915061329f8261423a565b600e82019050919050565b60006132b7602483613db9565b91506132c282614263565b604082019050919050565b60006132da601983613db9565b91506132e5826142b2565b602082019050919050565b60006132fd602c83613db9565b9150613308826142db565b604082019050919050565b6000613320603883613db9565b915061332b8261432a565b604082019050919050565b6000613343602a83613db9565b915061334e82614379565b604082019050919050565b6000613366602983613db9565b9150613371826143c8565b604082019050919050565b6000613389606283613dca565b915061339482614417565b606282019050919050565b60006133ac602d83613db9565b91506133b7826144b2565b604082019050919050565b60006133cf600483613dca565b91506133da82614501565b600482019050919050565b60006133f2602083613db9565b91506133fd8261452a565b602082019050919050565b6000613415602c83613db9565b915061342082614553565b604082019050919050565b6000613438602983613db9565b9150613443826145a2565b604082019050919050565b600061345b600a83613dca565b9150613466826145f1565b600a82019050919050565b600061347e602183613db9565b91506134898261461a565b604082019050919050565b60006134a1601d83613dca565b91506134ac82614669565b601d82019050919050565b60006134c4603183613db9565b91506134cf82614692565b604082019050919050565b60006134e7603d83613dca565b91506134f2826146e1565b603d82019050919050565b600061350a602d83613dca565b915061351582614730565b602d82019050919050565b600060a083016000830151848203600086015261353d8282613158565b915050602083015184820360208601526135578282613158565b915050604083015161356c60408601826136bd565b50606083015161357f60608601826136bd565b50608083015161359260808601826136bd565b508091505092915050565b600060c0830160008301516135b560008601826136bd565b50602083015184820360208601526135cd8282613158565b915050604083015184820360408601526135e78282613158565b91505060608301516135fc60608601826136bd565b50608083015161360f60808601826136bd565b5060a083015161362260a08601826136bd565b508091505092915050565b600060c08301600083015161364560008601826136bd565b506020830151848203602086015261365d8282613158565b915050604083015184820360408601526136778282613158565b915050606083015161368c60608601826136bd565b50608083015161369f60808601826136bd565b5060a08301516136b260a08601826136bd565b508091505092915050565b6136c681613f54565b82525050565b6136d581613f54565b82525050565b60006136e68261344e565b91506136f282896131ca565b91506136fd826131fb565b915061370982886131ca565b91506137148261337c565b915061372082876131ca565b915061372b826134da565b915061373782866131ca565b915061374282613287565b915061374e82856131ca565b9150613759826134fd565b915061376582846131ca565b9150613770826133c2565b9150819050979650505050505050565b600061378b82613494565b915061379782846131ca565b915081905092915050565b60006020820190506137b7600083018461308c565b92915050565b60006080820190506137d2600083018761308c565b6137df602083018661308c565b6137ec60408301856136cc565b81810360608301526137fe818461311f565b905095945050505050565b600060608201905061381e600083018661308c565b61382b60208301856136cc565b61383860408301846136cc565b949350505050565b6000602082019050818103600083015261385a818461309b565b905092915050565b60006020820190506138776000830184613110565b92915050565b600060208201905081810360008301526138978184613191565b905092915050565b600060808201905081810360008301526138b98187613191565b905081810360208301526138cd8186613191565b90506138dc60408301856136cc565b81810360608301526138ee8184613191565b905095945050505050565b600060808201905081810360008301526139138187613191565b905081810360208301526139278186613191565b905061393660408301856136cc565b61394360608301846136cc565b95945050505050565b600060a08201905081810360008301526139668188613191565b9050818103602083015261397a8187613191565b905061398960408301866136cc565b61399660608301856136cc565b6139a360808301846136cc565b9695505050505050565b600060408201905081810360008301526139c78185613191565b90506139d660208301846136cc565b9392505050565b600060608201905081810360008301526139f78186613191565b9050613a0660208301856136cc565b613a1360408301846136cc565b949350505050565b60006020820190508181036000830152613a348161321e565b9050919050565b60006020820190508181036000830152613a5481613241565b9050919050565b60006020820190508181036000830152613a7481613264565b9050919050565b60006020820190508181036000830152613a94816132aa565b9050919050565b60006020820190508181036000830152613ab4816132cd565b9050919050565b60006020820190508181036000830152613ad4816132f0565b9050919050565b60006020820190508181036000830152613af481613313565b9050919050565b60006020820190508181036000830152613b1481613336565b9050919050565b60006020820190508181036000830152613b3481613359565b9050919050565b60006020820190508181036000830152613b548161339f565b9050919050565b60006020820190508181036000830152613b74816133e5565b9050919050565b60006020820190508181036000830152613b9481613408565b9050919050565b60006020820190508181036000830152613bb48161342b565b9050919050565b60006020820190508181036000830152613bd481613471565b9050919050565b60006020820190508181036000830152613bf4816134b7565b9050919050565b60006020820190508181036000830152613c158184613520565b905092915050565b60006020820190508181036000830152613c37818461362d565b905092915050565b6000602082019050613c5460008301846136cc565b92915050565b600060c082019050613c6f60008301896136cc565b8181036020830152613c818188613191565b90508181036040830152613c958187613191565b9050613ca460608301866136cc565b613cb160808301856136cc565b613cbe60a08301846136cc565b979650505050505050565b6000604082019050613cde60008301856136cc565b613ceb60208301846136cc565b9392505050565b6000613cfc613d0d565b9050613d088282613fd2565b919050565b6000604051905090565b600067ffffffffffffffff821115613d3257613d3161410a565b5b613d3b82614139565b9050602081019050919050565b6000819050602082019050919050565b600081519050919050565b600081519050919050565b600081519050919050565b6000602082019050919050565b600082825260208201905092915050565b600082825260208201905092915050565b600082825260208201905092915050565b600082825260208201905092915050565b600081905092915050565b6000613de082613f54565b9150613deb83613f54565b9250827fffffffffffffffffffffffffffffffffffffffffffffffffffffffffffffffff03821115613e2057613e1f61407d565b5b828201905092915050565b6000613e3682613f54565b9150613e4183613f54565b925082613e5157613e506140ac565b5b828204905092915050565b6000613e6782613f54565b9150613e7283613f54565b9250817fffffffffffffffffffffffffffffffffffffffffffffffffffffffffffffffff0483118215151615613eab57613eaa61407d565b5b828202905092915050565b6000613ec182613f54565b9150613ecc83613f54565b925082821015613edf57613ede61407d565b5b828203905092915050565b6000613ef582613f34565b9050919050565b60008115159050919050565b60007fffffffff0000000000000000000000000000000000000000000000000000000082169050919050565b600073ffffffffffffffffffffffffffffffffffffffff82169050919050565b6000819050919050565b82818337600083830152505050565b60005b83811015613f8b578082015181840152602081019050613f70565b83811115613f9a576000848401525b50505050565b60006002820490506001821680613fb857607f821691505b60208210811415613fcc57613fcb6140db565b5b50919050565b613fdb82614139565b810181811067ffffffffffffffff82111715613ffa57613ff961410a565b5b80604052505050565b600061400e82613f54565b91507fffffffffffffffffffffffffffffffffffffffffffffffffffffffffffffffff8214156140415761404061407d565b5b600182019050919050565b600061405782613f54565b915061406283613f54565b925082614072576140716140ac565b5b828206905092915050565b7f4e487b7100000000000000000000000000000000000000000000000000000000600052601160045260246000fd5b7f4e487b7100000000000000000000000000000000000000000000000000000000600052601260045260246000fd5b7f4e487b7100000000000000000000000000000000000000000000000000000000600052602260045260246000fd5b7f4e487b7100000000000000000000000000000000000000000000000000000000600052604160045260246000fd5b6000601f19601f8301169050919050565b7f202d2d204e465420233a20000000000000000000000000000000000000000000600082015250565b7f4552433732313a207472616e7366657220746f206e6f6e20455243373231526560008201527f63656976657220696d706c656d656e7465720000000000000000000000000000602082015250565b7f4572726f723a20626f7373206d757374206861766520485020746f206174746160008201527f636b20626f73732e000000000000000000000000000000000000000000000000602082015250565b7f4552433732313a20746f6b656e20616c7265616479206d696e74656400000000600082015250565b7f2c20226d61785f76616c7565223a000000000000000000000000000000000000600082015250565b7f4552433732313a207472616e7366657220746f20746865207a65726f2061646460008201527f7265737300000000000000000000000000000000000000000000000000000000602082015250565b7f4552433732313a20617070726f766520746f2063616c6c657200000000000000600082015250565b7f4552433732313a206f70657261746f7220717565727920666f72206e6f6e657860008201527f697374656e7420746f6b656e0000000000000000000000000000000000000000602082015250565b7f4552433732313a20617070726f76652063616c6c6572206973206e6f74206f7760008201527f6e6572206e6f7220617070726f76656420666f7220616c6c0000000000000000602082015250565b7f4552433732313a2062616c616e636520717565727920666f7220746865207a6560008201527f726f206164647265737300000000000000000000000000000000000000000000602082015250565b7f4552433732313a206f776e657220717565727920666f72206e6f6e657869737460008201527f656e7420746f6b656e0000000000000000000000000000000000000000000000602082015250565b7f222c20226465736372697074696f6e223a20225468697320697320616e204e4660008201527f542074686174206c6574732070656f706c6520706c617920696e20746865206760208201527f616d65204d657461766572736520536c6179657221222c2022696d616765223a60408201527f2022000000000000000000000000000000000000000000000000000000000000606082015250565b7f4572726f723a20636861726163746572206d757374206861766520485020746f60008201527f2061747461636b20626f73732e00000000000000000000000000000000000000602082015250565b7f7d205d7d00000000000000000000000000000000000000000000000000000000600082015250565b7f4552433732313a206d696e7420746f20746865207a65726f2061646472657373600082015250565b7f4552433732313a20617070726f76656420717565727920666f72206e6f6e657860008201527f697374656e7420746f6b656e0000000000000000000000000000000000000000602082015250565b7f4552433732313a207472616e73666572206f6620746f6b656e2074686174206960008201527f73206e6f74206f776e0000000000000000000000000000000000000000000000602082015250565b7f7b226e616d65223a202200000000000000000000000000000000000000000000600082015250565b7f4552433732313a20617070726f76616c20746f2063757272656e74206f776e6560008201527f7200000000000000000000000000000000000000000000000000000000000000602082015250565b7f646174613a6170706c69636174696f6e2f6a736f6e3b6261736536342c000000600082015250565b7f4552433732313a207472616e736665722063616c6c6572206973206e6f74206f60008201527f776e6572206e6f7220617070726f766564000000000000000000000000000000602082015250565b7f222c202261747472696275746573223a205b207b202274726169745f7479706560008201527f223a20224865616c746820506f696e7473222c202276616c7565223a20000000602082015250565b7f7d2c207b202274726169745f74797065223a202241747461636b2044616d616760008201527f65222c202276616c7565223a2000000000000000000000000000000000000000602082015250565b61478881613eea565b811461479357600080fd5b50565b61479f81613efc565b81146147aa57600080fd5b50565b6147b681613f08565b81146147c157600080fd5b50565b6147cd81613f54565b81146147d857600080fd5b5056fe506c617965722061747461636b656420626f73732e204e657720626f73732068703a2025734142434445464748494a4b4c4d4e4f505152535455565758595a6162636465666768696a6b6c6d6e6f707172737475767778797a303132333435363738392b2f426f73732061747461636b656420706c617965722e204e657720706c617965722068703a2025730a4d696e746564204e465420772f20746f6b656e496420257320616e6420636861726163746572496e6465782025730a506c6179657220772f206368617261637465722025732061626f757420746f2061747461636b2e2048617320257320485020616e64202573204144a264697066735822122067cc11bf75912936073eaa77374f72d4d66c05530854492959812c317a38ae0064736f6c63430008040033446f6e6520696e697469616c697a696e6720257320772f2048502025732c20696d67202573446f6e6520696e697469616c697a696e6720626f737320257320772f2048502025732c20696d67202573",
  "linkReferences": {},
  "deployedLinkReferences": {}
}