{
  "_format": "hh-sol-artifact-1",
  "contractName": "MyEpicGame",
  "sourceName": "contracts/MyEpicGame.sol",
  "abi": [
    {
      "inputs": [
        {
          "internalType": "string[]",
          "name": "characterNames",
          "type": "string[]"
        },
        {
          "internalType": "string[]",
          "name": "characterImageURIs",
          "type": "string[]"
        },
        {
          "internalType": "uint256[]",
          "name": "characterHp",
          "type": "uint256[]"
        },
        {
          "internalType": "uint256[]",
          "name": "characterAttackDmg",
          "type": "uint256[]"
        },
        {
          "internalType": "string",
          "name": "bossName",
          "type": "string"
        },
        {
          "internalType": "string",
          "name": "bossImageURI",
          "type": "string"
        },
        {
          "internalType": "uint256",
          "name": "bossHp",
          "type": "uint256"
        },
        {
          "internalType": "uint256",
          "name": "bossAttackDamage",
          "type": "uint256"
        }
      ],
      "stateMutability": "nonpayable",
      "type": "constructor"
    },
    {
      "anonymous": false,
      "inputs": [
        {
          "indexed": true,
          "internalType": "address",
          "name": "owner",
          "type": "address"
        },
        {
          "indexed": true,
          "internalType": "address",
          "name": "approved",
          "type": "address"
        },
        {
          "indexed": true,
          "internalType": "uint256",
          "name": "tokenId",
          "type": "uint256"
        }
      ],
      "name": "Approval",
      "type": "event"
    },
    {
      "anonymous": false,
      "inputs": [
        {
          "indexed": true,
          "internalType": "address",
          "name": "owner",
          "type": "address"
        },
        {
          "indexed": true,
          "internalType": "address",
          "name": "operator",
          "type": "address"
        },
        {
          "indexed": false,
          "internalType": "bool",
          "name": "approved",
          "type": "bool"
        }
      ],
      "name": "ApprovalForAll",
      "type": "event"
    },
    {
      "anonymous": false,
      "inputs": [
        {
          "indexed": false,
          "internalType": "uint256",
          "name": "newBossHp",
          "type": "uint256"
        },
        {
          "indexed": false,
          "internalType": "uint256",
          "name": "newPlayerHp",
          "type": "uint256"
        }
      ],
      "name": "AttackComplete",
      "type": "event"
    },
    {
      "anonymous": false,
      "inputs": [
        {
          "indexed": false,
          "internalType": "address",
          "name": "sender",
          "type": "address"
        },
        {
          "indexed": false,
          "internalType": "uint256",
          "name": "tokenId",
          "type": "uint256"
        },
        {
          "indexed": false,
          "internalType": "uint256",
          "name": "characterIndex",
          "type": "uint256"
        }
      ],
      "name": "CharacterNFTMinted",
      "type": "event"
    },
    {
      "anonymous": false,
      "inputs": [
        {
          "indexed": true,
          "internalType": "address",
          "name": "from",
          "type": "address"
        },
        {
          "indexed": true,
          "internalType": "address",
          "name": "to",
          "type": "address"
        },
        {
          "indexed": true,
          "internalType": "uint256",
          "name": "tokenId",
          "type": "uint256"
        }
      ],
      "name": "Transfer",
      "type": "event"
    },
    {
      "inputs": [
        {
          "internalType": "address",
          "name": "to",
          "type": "address"
        },
        {
          "internalType": "uint256",
          "name": "tokenId",
          "type": "uint256"
        }
      ],
      "name": "approve",
      "outputs": [],
      "stateMutability": "nonpayable",
      "type": "function"
    },
    {
      "inputs": [],
      "name": "attackBoss",
      "outputs": [],
      "stateMutability": "nonpayable",
      "type": "function"
    },
    {
      "inputs": [
        {
          "internalType": "address",
          "name": "owner",
          "type": "address"
        }
      ],
      "name": "balanceOf",
      "outputs": [
        {
          "internalType": "uint256",
          "name": "",
          "type": "uint256"
        }
      ],
      "stateMutability": "view",
      "type": "function"
    },
    {
      "inputs": [],
      "name": "bigBoss",
      "outputs": [
        {
          "internalType": "string",
          "name": "name",
          "type": "string"
        },
        {
          "internalType": "string",
          "name": "imageURI",
          "type": "string"
        },
        {
          "internalType": "uint256",
          "name": "hp",
          "type": "uint256"
        },
        {
          "internalType": "uint256",
          "name": "maxHp",
          "type": "uint256"
        },
        {
          "internalType": "uint256",
          "name": "attackDamage",
          "type": "uint256"
        }
      ],
      "stateMutability": "view",
      "type": "function"
    },
    {
      "inputs": [],
      "name": "checkIfUserHasNFT",
      "outputs": [
        {
          "components": [
            {
              "internalType": "uint256",
              "name": "characterIndex",
              "type": "uint256"
            },
            {
              "internalType": "string",
              "name": "name",
              "type": "string"
            },
            {
              "internalType": "string",
              "name": "imageURI",
              "type": "string"
            },
            {
              "internalType": "uint256",
              "name": "hp",
              "type": "uint256"
            },
            {
              "internalType": "uint256",
              "name": "maxHp",
              "type": "uint256"
            },
            {
              "internalType": "uint256",
              "name": "attackDamage",
              "type": "uint256"
            }
          ],
          "internalType": "struct MyEpicGame.CharacterAttributes",
          "name": "",
          "type": "tuple"
        }
      ],
      "stateMutability": "view",
      "type": "function"
    },
    {
      "inputs": [],
      "name": "getAllDefaultCharacters",
      "outputs": [
        {
          "components": [
            {
              "internalType": "uint256",
              "name": "characterIndex",
              "type": "uint256"
            },
            {
              "internalType": "string",
              "name": "name",
              "type": "string"
            },
            {
              "internalType": "string",
              "name": "imageURI",
              "type": "string"
            },
            {
              "internalType": "uint256",
              "name": "hp",
              "type": "uint256"
            },
            {
              "internalType": "uint256",
              "name": "maxHp",
              "type": "uint256"
            },
            {
              "internalType": "uint256",
              "name": "attackDamage",
              "type": "uint256"
            }
          ],
          "internalType": "struct MyEpicGame.CharacterAttributes[]",
          "name": "",
          "type": "tuple[]"
        }
      ],
      "stateMutability": "view",
      "type": "function"
    },
    {
      "inputs": [],
      "name": "getAllPlayers",
      "outputs": [
        {
          "components": [
            {
              "internalType": "uint256",
              "name": "characterIndex",
              "type": "uint256"
            },
            {
              "internalType": "string",
              "name": "name",
              "type": "string"
            },
            {
              "internalType": "string",
              "name": "imageURI",
              "type": "string"
            },
            {
              "internalType": "uint256",
              "name": "hp",
              "type": "uint256"
            },
            {
              "internalType": "uint256",
              "name": "maxHp",
              "type": "uint256"
            },
            {
              "internalType": "uint256",
              "name": "attackDamage",
              "type": "uint256"
            }
          ],
          "internalType": "struct MyEpicGame.CharacterAttributes[]",
          "name": "",
          "type": "tuple[]"
        }
      ],
      "stateMutability": "view",
      "type": "function"
    },
    {
      "inputs": [
        {
          "internalType": "uint256",
          "name": "tokenId",
          "type": "uint256"
        }
      ],
      "name": "getApproved",
      "outputs": [
        {
          "internalType": "address",
          "name": "",
          "type": "address"
        }
      ],
      "stateMutability": "view",
      "type": "function"
    },
    {
      "inputs": [],
      "name": "getBigBoss",
      "outputs": [
        {
          "components": [
            {
              "internalType": "string",
              "name": "name",
              "type": "string"
            },
            {
              "internalType": "string",
              "name": "imageURI",
              "type": "string"
            },
            {
              "internalType": "uint256",
              "name": "hp",
              "type": "uint256"
            },
            {
              "internalType": "uint256",
              "name": "maxHp",
              "type": "uint256"
            },
            {
              "internalType": "uint256",
              "name": "attackDamage",
              "type": "uint256"
            }
          ],
          "internalType": "struct MyEpicGame.BigBoss",
          "name": "",
          "type": "tuple"
        }
      ],
      "stateMutability": "view",
      "type": "function"
    },
    {
      "inputs": [
        {
          "internalType": "address",
          "name": "owner",
          "type": "address"
        },
        {
          "internalType": "address",
          "name": "operator",
          "type": "address"
        }
      ],
      "name": "isApprovedForAll",
      "outputs": [
        {
          "internalType": "bool",
          "name": "",
          "type": "bool"
        }
      ],
      "stateMutability": "view",
      "type": "function"
    },
    {
      "inputs": [
        {
          "internalType": "uint256",
          "name": "_characterIndex",
          "type": "uint256"
        }
      ],
      "name": "mintCharacterNFT",
      "outputs": [],
      "stateMutability": "nonpayable",
      "type": "function"
    },
    {
      "inputs": [],
      "name": "name",
      "outputs": [
        {
          "internalType": "string",
          "name": "",
          "type": "string"
        }
      ],
      "stateMutability": "view",
      "type": "function"
    },
    {
      "inputs": [
        {
          "internalType": "uint256",
          "name": "",
          "type": "uint256"
        }
      ],
      "name": "nftHolderAttributes",
      "outputs": [
        {
          "internalType": "uint256",
          "name": "characterIndex",
          "type": "uint256"
        },
        {
          "internalType": "string",
          "name": "name",
          "type": "string"
        },
        {
          "internalType": "string",
          "name": "imageURI",
          "type": "string"
        },
        {
          "internalType": "uint256",
          "name": "hp",
          "type": "uint256"
        },
        {
          "internalType": "uint256",
          "name": "maxHp",
          "type": "uint256"
        },
        {
          "internalType": "uint256",
          "name": "attackDamage",
          "type": "uint256"
        }
      ],
      "stateMutability": "view",
      "type": "function"
    },
    {
      "inputs": [
        {
          "internalType": "address",
          "name": "",
          "type": "address"
        }
      ],
      "name": "nftHolders",
      "outputs": [
        {
          "internalType": "uint256",
          "name": "",
          "type": "uint256"
        }
      ],
      "stateMutability": "view",
      "type": "function"
    },
    {
      "inputs": [
        {
          "internalType": "uint256",
          "name": "tokenId",
          "type": "uint256"
        }
      ],
      "name": "ownerOf",
      "outputs": [
        {
          "internalType": "address",
          "name": "",
          "type": "address"
        }
      ],
      "stateMutability": "view",
      "type": "function"
    },
    {
      "inputs": [
        {
          "internalType": "address",
          "name": "from",
          "type": "address"
        },
        {
          "internalType": "address",
          "name": "to",
          "type": "address"
        },
        {
          "internalType": "uint256",
          "name": "tokenId",
          "type": "uint256"
        }
      ],
      "name": "safeTransferFrom",
      "outputs": [],
      "stateMutability": "nonpayable",
      "type": "function"
    },
    {
      "inputs": [
        {
          "internalType": "address",
          "name": "from",
          "type": "address"
        },
        {
          "internalType": "address",
          "name": "to",
          "type": "address"
        },
        {
          "internalType": "uint256",
          "name": "tokenId",
          "type": "uint256"
        },
        {
          "internalType": "bytes",
          "name": "_data",
          "type": "bytes"
        }
      ],
      "name": "safeTransferFrom",
      "outputs": [],
      "stateMutability": "nonpayable",
      "type": "function"
    },
    {
      "inputs": [
        {
          "internalType": "address",
          "name": "operator",
          "type": "address"
        },
        {
          "internalType": "bool",
          "name": "approved",
          "type": "bool"
        }
      ],
      "name": "setApprovalForAll",
      "outputs": [],
      "stateMutability": "nonpayable",
      "type": "function"
    },
    {
      "inputs": [
        {
          "internalType": "bytes4",
          "name": "interfaceId",
          "type": "bytes4"
        }
      ],
      "name": "supportsInterface",
      "outputs": [
        {
          "internalType": "bool",
          "name": "",
          "type": "bool"
        }
      ],
      "stateMutability": "view",
      "type": "function"
    },
    {
      "inputs": [],
      "name": "symbol",
      "outputs": [
        {
          "internalType": "string",
          "name": "",
          "type": "string"
        }
      ],
      "stateMutability": "view",
      "type": "function"
    },
    {
      "inputs": [
        {
          "internalType": "uint256",
          "name": "_tokenId",
          "type": "uint256"
        }
      ],
      "name": "tokenURI",
      "outputs": [
        {
          "internalType": "string",
          "name": "",
          "type": "string"
        }
      ],
      "stateMutability": "view",
      "type": "function"
    },
    {
      "inputs": [
        {
          "internalType": "address",
          "name": "from",
          "type": "address"
        },
        {
          "internalType": "address",
          "name": "to",
          "type": "address"
        },
        {
          "internalType": "uint256",
          "name": "tokenId",
          "type": "uint256"
        }
      ],
      "name": "transferFrom",
      "outputs": [],
      "stateMutability": "nonpayable",
      "type": "function"
    }
  ],
  "bytecode": "0x60806040523480156200001157600080fd5b5060405162005b2238038062005b22833981810160405281019062000037919062000a85565b6040518060400160405280600681526020017f4865726f657300000000000000000000000000000000000000000000000000008152506040518060400160405280600481526020017f4845524f000000000000000000000000000000000000000000000000000000008152508160009080519060200190620000bb929190620007ed565b508060019080519060200190620000d4929190620007ed565b5050506040518060a0016040528085815260200184815260200183815260200183815260200182815250600660008201518160000190805190602001906200011e929190620007ed565b5060208201518160010190805190602001906200013d929190620007ed565b50604082015181600201556060820151816003015560808201518160040155905050620002c06040518060600160405280602a815260200162005af8602a9139600660000180546200018f9062000e08565b80601f0160208091040260200160405190810160405280929190818152602001828054620001bd9062000e08565b80156200020e5780601f10620001e2576101008083540402835291602001916200020e565b820191906000526020600020905b815481529060010190602001808311620001f057829003601f168201915b5050505050600660020154600660010180546200022b9062000e08565b80601f0160208091040260200160405190810160405280929190818152602001828054620002599062000e08565b8015620002aa5780601f106200027e57610100808354040283529160200191620002aa565b820191906000526020600020905b8154815290600101906020018083116200028c57829003601f168201915b50505050506200070260201b62001e641760201c565b60005b8851811015620006dc57600c6040518060c001604052808381526020018b84815181106200031a577f4e487b7100000000000000000000000000000000000000000000000000000000600052603260045260246000fd5b602002602001015181526020018a848151811062000361577f4e487b7100000000000000000000000000000000000000000000000000000000600052603260045260246000fd5b60200260200101518152602001898481518110620003a8577f4e487b7100000000000000000000000000000000000000000000000000000000600052603260045260246000fd5b60200260200101518152602001898481518110620003ef577f4e487b7100000000000000000000000000000000000000000000000000000000600052603260045260246000fd5b6020026020010151815260200188848151811062000436577f4e487b7100000000000000000000000000000000000000000000000000000000600052603260045260246000fd5b6020026020010151815250908060018154018082558091505060019003906000526020600020906006020160009091909190915060008201518160000155602082015181600101908051906020019062000492929190620007ed565b506040820151816002019080519060200190620004b1929190620007ed565b50606082015181600301556080820151816004015560a0820151816005015550506000600c82815481106200050f577f4e487b7100000000000000000000000000000000000000000000000000000000600052603260045260246000fd5b90600052602060002090600602016040518060c001604052908160008201548152602001600182018054620005449062000e08565b80601f0160208091040260200160405190810160405280929190818152602001828054620005729062000e08565b8015620005c35780601f106200059757610100808354040283529160200191620005c3565b820191906000526020600020905b815481529060010190602001808311620005a557829003601f168201915b50505050508152602001600282018054620005de9062000e08565b80601f01602080910402602001604051908101604052809291908181526020018280546200060c9062000e08565b80156200065d5780601f1062000631576101008083540402835291602001916200065d565b820191906000526020600020905b8154815290600101906020018083116200063f57829003601f168201915b5050505050815260200160038201548152602001600482015481526020016005820154815250509050620006c460405180606001604052806025815260200162005ad3602591398260200151836060015184604001516200070260201b62001e641760201c565b50600181620006d4919062000d6b565b9050620002c3565b50620006f4600b620007ae60201b62001f061760201c565b505050505050505062000f2c565b620007a8848484846040516024016200071f949392919062000c30565b6040516020818303038152906040527f8d142cdd000000000000000000000000000000000000000000000000000000007bffffffffffffffffffffffffffffffffffffffffffffffffffffffff19166020820180517bffffffffffffffffffffffffffffffffffffffffffffffffffffffff8381831617835250505050620007c460201b60201c565b50505050565b6001816000016000828254019250508190555050565b60008151905060006a636f6e736f6c652e6c6f679050602083016000808483855afa5050505050565b828054620007fb9062000e08565b90600052602060002090601f0160209004810192826200081f57600085556200086b565b82601f106200083a57805160ff19168380011785556200086b565b828001600101855582156200086b579182015b828111156200086a5782518255916020019190600101906200084d565b5b5090506200087a91906200087e565b5090565b5b80821115620008995760008160009055506001016200087f565b5090565b6000620008b4620008ae8462000cbb565b62000c92565b90508083825260208201905082856020860282011115620008d457600080fd5b60005b858110156200092357815167ffffffffffffffff811115620008f857600080fd5b80860162000907898262000a41565b85526020850194506020840193505050600181019050620008d7565b5050509392505050565b6000620009446200093e8462000cea565b62000c92565b905080838252602082019050828560208602820111156200096457600080fd5b60005b858110156200099857816200097d888262000a6e565b84526020840193506020830192505060018101905062000967565b5050509392505050565b6000620009b9620009b38462000d19565b62000c92565b905082815260208101848484011115620009d257600080fd5b620009df84828562000dd2565b509392505050565b600082601f830112620009f957600080fd5b815162000a0b8482602086016200089d565b91505092915050565b600082601f83011262000a2657600080fd5b815162000a388482602086016200092d565b91505092915050565b600082601f83011262000a5357600080fd5b815162000a65848260208601620009a2565b91505092915050565b60008151905062000a7f8162000f12565b92915050565b600080600080600080600080610100898b03121562000aa357600080fd5b600089015167ffffffffffffffff81111562000abe57600080fd5b62000acc8b828c01620009e7565b985050602089015167ffffffffffffffff81111562000aea57600080fd5b62000af88b828c01620009e7565b975050604089015167ffffffffffffffff81111562000b1657600080fd5b62000b248b828c0162000a14565b965050606089015167ffffffffffffffff81111562000b4257600080fd5b62000b508b828c0162000a14565b955050608089015167ffffffffffffffff81111562000b6e57600080fd5b62000b7c8b828c0162000a41565b94505060a089015167ffffffffffffffff81111562000b9a57600080fd5b62000ba88b828c0162000a41565b93505060c062000bbb8b828c0162000a6e565b92505060e062000bce8b828c0162000a6e565b9150509295985092959890939650565b600062000beb8262000d4f565b62000bf7818562000d5a565b935062000c0981856020860162000dd2565b62000c148162000f01565b840191505092915050565b62000c2a8162000dc8565b82525050565b6000608082019050818103600083015262000c4c818762000bde565b9050818103602083015262000c62818662000bde565b905062000c73604083018562000c1f565b818103606083015262000c87818462000bde565b905095945050505050565b600062000c9e62000cb1565b905062000cac828262000e3e565b919050565b6000604051905090565b600067ffffffffffffffff82111562000cd95762000cd862000ed2565b5b602082029050602081019050919050565b600067ffffffffffffffff82111562000d085762000d0762000ed2565b5b602082029050602081019050919050565b600067ffffffffffffffff82111562000d375762000d3662000ed2565b5b62000d428262000f01565b9050602081019050919050565b600081519050919050565b600082825260208201905092915050565b600062000d788262000dc8565b915062000d858362000dc8565b9250827fffffffffffffffffffffffffffffffffffffffffffffffffffffffffffffffff0382111562000dbd5762000dbc62000e74565b5b828201905092915050565b6000819050919050565b60005b8381101562000df257808201518184015260208101905062000dd5565b8381111562000e02576000848401525b50505050565b6000600282049050600182168062000e2157607f821691505b6020821081141562000e385762000e3762000ea3565b5b50919050565b62000e498262000f01565b810181811067ffffffffffffffff8211171562000e6b5762000e6a62000ed2565b5b80604052505050565b7f4e487b7100000000000000000000000000000000000000000000000000000000600052601160045260246000fd5b7f4e487b7100000000000000000000000000000000000000000000000000000000600052602260045260246000fd5b7f4e487b7100000000000000000000000000000000000000000000000000000000600052604160045260246000fd5b6000601f19601f8301169050919050565b62000f1d8162000dc8565b811462000f2957600080fd5b50565b614b978062000f3c6000396000f3fe608060405234801561001057600080fd5b50600436106101425760003560e01c806398da4c95116100b8578063c87b56dd1161007c578063c87b56dd14610392578063c8cf27f4146103c2578063d4f24c5b146103e0578063e985e9c5146103ea578063efa1c4821461041a578063f8b81ef71461043857610142565b806398da4c95146102e5578063a22cb4651461031a578063a9c3267914610336578063b88d4fde14610358578063b953084e1461037457610142565b806323b872dd1161010a57806323b872dd146101ff57806342842e0e1461021b5780636352211e1461023757806370a08231146102675780637df124a11461029757806395d89b41146102c757610142565b806301ffc9a7146101475780630665f9611461017757806306fdde0314610195578063081812fc146101b3578063095ea7b3146101e3575b600080fd5b610161600480360381019061015c919061328c565b610454565b60405161016e9190613af1565b60405180910390f35b61017f610536565b60405161018c9190613e8a565b60405180910390f35b61019d610692565b6040516101aa9190613b0c565b60405180910390f35b6101cd60048036038101906101c891906132de565b610724565b6040516101da9190613a31565b60405180910390f35b6101fd60048036038101906101f89190613250565b6107a9565b005b6102196004803603810190610214919061314a565b6108c1565b005b6102356004803603810190610230919061314a565b610921565b005b610251600480360381019061024c91906132de565b610941565b60405161025e9190613a31565b60405180910390f35b610281600480360381019061027c91906130e5565b6109f3565b60405161028e9190613ece565b60405180910390f35b6102b160048036038101906102ac91906130e5565b610aab565b6040516102be9190613ece565b60405180910390f35b6102cf610ac3565b6040516102dc9190613b0c565b60405180910390f35b6102ff60048036038101906102fa91906132de565b610b55565b60405161031196959493929190613ee9565b60405180910390f35b610334600480360381019061032f9190613214565b610ca1565b005b61033e610cb7565b60405161034f959493929190613bdb565b60405180910390f35b610372600480360381019061036d9190613199565b610deb565b005b61037c610e4d565b6040516103899190613acf565b60405180910390f35b6103ac60048036038101906103a791906132de565b610ff8565b6040516103b99190613b0c565b60405180910390f35b6103ca611213565b6040516103d79190613eac565b60405180910390f35b6103e86113eb565b005b61040460048036038101906103ff919061310e565b611776565b6040516104119190613af1565b60405180910390f35b61042261180a565b60405161042f9190613acf565b60405180910390f35b610452600480360381019061044d91906132de565b611a70565b005b60007f80ac58cd000000000000000000000000000000000000000000000000000000007bffffffffffffffffffffffffffffffffffffffffffffffffffffffff1916827bffffffffffffffffffffffffffffffffffffffffffffffffffffffff1916148061051f57507f5b5e139f000000000000000000000000000000000000000000000000000000007bffffffffffffffffffffffffffffffffffffffffffffffffffffffff1916827bffffffffffffffffffffffffffffffffffffffffffffffffffffffff1916145b8061052f575061052e82611f1c565b5b9050919050565b61053e612f0c565b60066040518060a001604052908160008201805461055b9061422f565b80601f01602080910402602001604051908101604052809291908181526020018280546105879061422f565b80156105d45780601f106105a9576101008083540402835291602001916105d4565b820191906000526020600020905b8154815290600101906020018083116105b757829003601f168201915b505050505081526020016001820180546105ed9061422f565b80601f01602080910402602001604051908101604052809291908181526020018280546106199061422f565b80156106665780601f1061063b57610100808354040283529160200191610666565b820191906000526020600020905b81548152906001019060200180831161064957829003601f168201915b505050505081526020016002820154815260200160038201548152602001600482015481525050905090565b6060600080546106a19061422f565b80601f01602080910402602001604051908101604052809291908181526020018280546106cd9061422f565b801561071a5780601f106106ef5761010080835404028352916020019161071a565b820191906000526020600020905b8154815290600101906020018083116106fd57829003601f168201915b5050505050905090565b600061072f82611f86565b61076e576040517f08c379a000000000000000000000000000000000000000000000000000000000815260040161076590613e0a565b60405180910390fd5b6004600083815260200190815260200160002060009054906101000a900473ffffffffffffffffffffffffffffffffffffffff169050919050565b60006107b482610941565b90508073ffffffffffffffffffffffffffffffffffffffff168373ffffffffffffffffffffffffffffffffffffffff161415610825576040517f08c379a000000000000000000000000000000000000000000000000000000000815260040161081c90613e4a565b60405180910390fd5b8073ffffffffffffffffffffffffffffffffffffffff16610844611ff2565b73ffffffffffffffffffffffffffffffffffffffff16148061087357506108728161086d611ff2565b611776565b5b6108b2576040517f08c379a00000000000000000000000000000000000000000000000000000000081526004016108a990613d6a565b60405180910390fd5b6108bc8383611ffa565b505050565b6108d26108cc611ff2565b826120b3565b610911576040517f08c379a000000000000000000000000000000000000000000000000000000000815260040161090890613e6a565b60405180910390fd5b61091c838383612191565b505050565b61093c83838360405180602001604052806000815250610deb565b505050565b6000806002600084815260200190815260200160002060009054906101000a900473ffffffffffffffffffffffffffffffffffffffff169050600073ffffffffffffffffffffffffffffffffffffffff168173ffffffffffffffffffffffffffffffffffffffff1614156109ea576040517f08c379a00000000000000000000000000000000000000000000000000000000081526004016109e190613daa565b60405180910390fd5b80915050919050565b60008073ffffffffffffffffffffffffffffffffffffffff168273ffffffffffffffffffffffffffffffffffffffff161415610a64576040517f08c379a0000000000000000000000000000000000000000000000000000000008152600401610a5b90613d8a565b60405180910390fd5b600360008373ffffffffffffffffffffffffffffffffffffffff1673ffffffffffffffffffffffffffffffffffffffff168152602001908152602001600020549050919050565b600e6020528060005260406000206000915090505481565b606060018054610ad29061422f565b80601f0160208091040260200160405190810160405280929190818152602001828054610afe9061422f565b8015610b4b5780601f10610b2057610100808354040283529160200191610b4b565b820191906000526020600020905b815481529060010190602001808311610b2e57829003601f168201915b5050505050905090565b600d602052806000526040600020600091509050806000015490806001018054610b7e9061422f565b80601f0160208091040260200160405190810160405280929190818152602001828054610baa9061422f565b8015610bf75780601f10610bcc57610100808354040283529160200191610bf7565b820191906000526020600020905b815481529060010190602001808311610bda57829003601f168201915b505050505090806002018054610c0c9061422f565b80601f0160208091040260200160405190810160405280929190818152602001828054610c389061422f565b8015610c855780601f10610c5a57610100808354040283529160200191610c85565b820191906000526020600020905b815481529060010190602001808311610c6857829003601f168201915b5050505050908060030154908060040154908060050154905086565b610cb3610cac611ff2565b83836123ed565b5050565b6006806000018054610cc89061422f565b80601f0160208091040260200160405190810160405280929190818152602001828054610cf49061422f565b8015610d415780601f10610d1657610100808354040283529160200191610d41565b820191906000526020600020905b815481529060010190602001808311610d2457829003601f168201915b505050505090806001018054610d569061422f565b80601f0160208091040260200160405190810160405280929190818152602001828054610d829061422f565b8015610dcf5780601f10610da457610100808354040283529160200191610dcf565b820191906000526020600020905b815481529060010190602001808311610db257829003601f168201915b5050505050908060020154908060030154908060040154905085565b610dfc610df6611ff2565b836120b3565b610e3b576040517f08c379a0000000000000000000000000000000000000000000000000000000008152600401610e3290613e6a565b60405180910390fd5b610e478484848461255a565b50505050565b6060600c805480602002602001604051908101604052809291908181526020016000905b82821015610fef57838290600052602060002090600602016040518060c001604052908160008201548152602001600182018054610eae9061422f565b80601f0160208091040260200160405190810160405280929190818152602001828054610eda9061422f565b8015610f275780601f10610efc57610100808354040283529160200191610f27565b820191906000526020600020905b815481529060010190602001808311610f0a57829003601f168201915b50505050508152602001600282018054610f409061422f565b80601f0160208091040260200160405190810160405280929190818152602001828054610f6c9061422f565b8015610fb95780601f10610f8e57610100808354040283529160200191610fb9565b820191906000526020600020905b815481529060010190602001808311610f9c57829003601f168201915b50505050508152602001600382015481526020016004820154815260200160058201548152505081526020019060010190610e71565b50505050905090565b60606000600d60008481526020019081526020016000206040518060c0016040529081600082015481526020016001820180546110349061422f565b80601f01602080910402602001604051908101604052809291908181526020018280546110609061422f565b80156110ad5780601f10611082576101008083540402835291602001916110ad565b820191906000526020600020905b81548152906001019060200180831161109057829003601f168201915b505050505081526020016002820180546110c69061422f565b80601f01602080910402602001604051908101604052809291908181526020018280546110f29061422f565b801561113f5780601f106111145761010080835404028352916020019161113f565b820191906000526020600020905b81548152906001019060200180831161112257829003601f168201915b5050505050815260200160038201548152602001600482015481526020016005820154815250509050600061117782606001516125b6565b9050600061118883608001516125b6565b905060006111998460a001516125b6565b905060006111df85602001516111ae896125b6565b87604001518787876040516020016111cb9695949392919061396a565b604051602081830303815290604052612763565b90506000816040516020016111f49190613a0f565b6040516020818303038152906040529050809650505050505050919050565b61121b612f3b565b6000600e60003373ffffffffffffffffffffffffffffffffffffffff1673ffffffffffffffffffffffffffffffffffffffff16815260200190815260200160002054905060008111156113da57600d60008281526020019081526020016000206040518060c0016040529081600082015481526020016001820180546112a09061422f565b80601f01602080910402602001604051908101604052809291908181526020018280546112cc9061422f565b80156113195780601f106112ee57610100808354040283529160200191611319565b820191906000526020600020905b8154815290600101906020018083116112fc57829003601f168201915b505050505081526020016002820180546113329061422f565b80601f016020809104026020016040519081016040528092919081815260200182805461135e9061422f565b80156113ab5780601f10611380576101008083540402835291602001916113ab565b820191906000526020600020905b81548152906001019060200180831161138e57829003601f168201915b5050505050815260200160038201548152602001600482015481526020016005820154815250509150506113e8565b6113e2612f3b565b80925050505b90565b6000600e60003373ffffffffffffffffffffffffffffffffffffffff1673ffffffffffffffffffffffffffffffffffffffff1681526020019081526020016000205490506000600d600083815260200190815260200160002090506114fe6040518060600160405280603c8152602001614b26603c91398260010180546114719061422f565b80601f016020809104026020016040519081016040528092919081815260200182805461149d9061422f565b80156114ea5780601f106114bf576101008083540402835291602001916114ea565b820191906000526020600020905b8154815290600101906020018083116114cd57829003601f168201915b505050505083600301548460050154612902565b6115d66040518060400160405280601b81526020017f426f73732025732068617320257320485020616e642025732041440000000000815250600660000180546115479061422f565b80601f01602080910402602001604051908101604052809291908181526020018280546115739061422f565b80156115c05780601f10611595576101008083540402835291602001916115c0565b820191906000526020600020905b8154815290600101906020018083116115a357829003601f168201915b5050505050600660020154600660040154612902565b600081600301541161161d576040517f08c379a000000000000000000000000000000000000000000000000000000000815260040161161490613dca565b60405180910390fd5b600060066002015411611665576040517f08c379a000000000000000000000000000000000000000000000000000000000815260040161165c90613cca565b60405180910390fd5b806005015460066002015410156116865760006006600201819055506116a5565b806005015460066002015461169b9190614145565b6006600201819055505b600660040154816003015410156116c557600081600301819055506116e3565b60066004015481600301546116da9190614145565b81600301819055505b61170a604051806060016040528060258152602001614a6b602591396006600201546129a4565b611730604051806060016040528060288152602001614ad06028913982600301546129a4565b7f838ab28464562786a6c4ab2311964b82fa60bd9b14aa7e856af1f3f18d41a414600660020154826003015460405161176a929190613f58565b60405180910390a15050565b6000600560008473ffffffffffffffffffffffffffffffffffffffff1673ffffffffffffffffffffffffffffffffffffffff16815260200190815260200160002060008373ffffffffffffffffffffffffffffffffffffffff1673ffffffffffffffffffffffffffffffffffffffff16815260200190815260200160002060009054906101000a900460ff16905092915050565b60606000611818600b612a40565b67ffffffffffffffff811115611857577f4e487b7100000000000000000000000000000000000000000000000000000000600052604160045260246000fd5b60405190808252806020026020018201604052801561189057816020015b61187d612f3b565b8152602001906001900390816118755790505b50905060005b6118a0600b612a40565b811015611a6857600d60008281526020019081526020016000206040518060c0016040529081600082015481526020016001820180546118df9061422f565b80601f016020809104026020016040519081016040528092919081815260200182805461190b9061422f565b80156119585780601f1061192d57610100808354040283529160200191611958565b820191906000526020600020905b81548152906001019060200180831161193b57829003601f168201915b505050505081526020016002820180546119719061422f565b80601f016020809104026020016040519081016040528092919081815260200182805461199d9061422f565b80156119ea5780601f106119bf576101008083540402835291602001916119ea565b820191906000526020600020905b8154815290600101906020018083116119cd57829003601f168201915b505050505081526020016003820154815260200160048201548152602001600582015481525050828281518110611a4a577f4e487b7100000000000000000000000000000000000000000000000000000000600052603260045260246000fd5b60200260200101819052508080611a6090614292565b915050611896565b508091505090565b6000611a7c600b612a40565b9050611a883382612a4e565b6040518060c00160405280838152602001600c8481548110611ad3577f4e487b7100000000000000000000000000000000000000000000000000000000600052603260045260246000fd5b90600052602060002090600602016001018054611aef9061422f565b80601f0160208091040260200160405190810160405280929190818152602001828054611b1b9061422f565b8015611b685780601f10611b3d57610100808354040283529160200191611b68565b820191906000526020600020905b815481529060010190602001808311611b4b57829003601f168201915b50505050508152602001600c8481548110611bac577f4e487b7100000000000000000000000000000000000000000000000000000000600052603260045260246000fd5b90600052602060002090600602016002018054611bc89061422f565b80601f0160208091040260200160405190810160405280929190818152602001828054611bf49061422f565b8015611c415780601f10611c1657610100808354040283529160200191611c41565b820191906000526020600020905b815481529060010190602001808311611c2457829003601f168201915b50505050508152602001600c8481548110611c85577f4e487b7100000000000000000000000000000000000000000000000000000000600052603260045260246000fd5b9060005260206000209060060201600301548152602001600c8481548110611cd6577f4e487b7100000000000000000000000000000000000000000000000000000000600052603260045260246000fd5b9060005260206000209060060201600401548152602001600c8481548110611d27577f4e487b7100000000000000000000000000000000000000000000000000000000600052603260045260246000fd5b906000526020600020906006020160050154815250600d6000838152602001908152602001600020600082015181600001556020820151816001019080519060200190611d75929190612f71565b506040820151816002019080519060200190611d92929190612f71565b50606082015181600301556080820151816004015560a08201518160050155905050611dd76040518060600160405280602e8152602001614af8602e91398284612a6c565b80600e60003373ffffffffffffffffffffffffffffffffffffffff1673ffffffffffffffffffffffffffffffffffffffff16815260200190815260200160002081905550611e25600b611f06565b7f4bc303fd457a97b4691b9af582ce71868a3d258638c8d4f8c60988a0f0bfb8cd338284604051611e5893929190613a98565b60405180910390a15050565b611f0084848484604051602401611e7e9493929190613b2e565b6040516020818303038152906040527f8d142cdd000000000000000000000000000000000000000000000000000000007bffffffffffffffffffffffffffffffffffffffffffffffffffffffff19166020820180517bffffffffffffffffffffffffffffffffffffffffffffffffffffffff8381831617835250505050612b0b565b50505050565b6001816000016000828254019250508190555050565b60007f01ffc9a7000000000000000000000000000000000000000000000000000000007bffffffffffffffffffffffffffffffffffffffffffffffffffffffff1916827bffffffffffffffffffffffffffffffffffffffffffffffffffffffff1916149050919050565b60008073ffffffffffffffffffffffffffffffffffffffff166002600084815260200190815260200160002060009054906101000a900473ffffffffffffffffffffffffffffffffffffffff1673ffffffffffffffffffffffffffffffffffffffff1614159050919050565b600033905090565b816004600083815260200190815260200160002060006101000a81548173ffffffffffffffffffffffffffffffffffffffff021916908373ffffffffffffffffffffffffffffffffffffffff160217905550808273ffffffffffffffffffffffffffffffffffffffff1661206d83610941565b73ffffffffffffffffffffffffffffffffffffffff167f8c5be1e5ebec7d5bd14f71427d1e84f3dd0314c0f7b2291e5b200ac8c7c3b92560405160405180910390a45050565b60006120be82611f86565b6120fd576040517f08c379a00000000000000000000000000000000000000000000000000000000081526004016120f490613d4a565b60405180910390fd5b600061210883610941565b90508073ffffffffffffffffffffffffffffffffffffffff168473ffffffffffffffffffffffffffffffffffffffff16148061217757508373ffffffffffffffffffffffffffffffffffffffff1661215f84610724565b73ffffffffffffffffffffffffffffffffffffffff16145b8061218857506121878185611776565b5b91505092915050565b8273ffffffffffffffffffffffffffffffffffffffff166121b182610941565b73ffffffffffffffffffffffffffffffffffffffff1614612207576040517f08c379a00000000000000000000000000000000000000000000000000000000081526004016121fe90613e2a565b60405180910390fd5b600073ffffffffffffffffffffffffffffffffffffffff168273ffffffffffffffffffffffffffffffffffffffff161415612277576040517f08c379a000000000000000000000000000000000000000000000000000000000815260040161226e90613d0a565b60405180910390fd5b612282838383612b34565b61228d600082611ffa565b6001600360008573ffffffffffffffffffffffffffffffffffffffff1673ffffffffffffffffffffffffffffffffffffffff16815260200190815260200160002060008282546122dd9190614145565b925050819055506001600360008473ffffffffffffffffffffffffffffffffffffffff1673ffffffffffffffffffffffffffffffffffffffff16815260200190815260200160002060008282546123349190614064565b92505081905550816002600083815260200190815260200160002060006101000a81548173ffffffffffffffffffffffffffffffffffffffff021916908373ffffffffffffffffffffffffffffffffffffffff160217905550808273ffffffffffffffffffffffffffffffffffffffff168473ffffffffffffffffffffffffffffffffffffffff167fddf252ad1be2c89b69c2b068fc378daa952ba7f163c4a11628f55a4df523b3ef60405160405180910390a4505050565b8173ffffffffffffffffffffffffffffffffffffffff168373ffffffffffffffffffffffffffffffffffffffff16141561245c576040517f08c379a000000000000000000000000000000000000000000000000000000000815260040161245390613d2a565b60405180910390fd5b80600560008573ffffffffffffffffffffffffffffffffffffffff1673ffffffffffffffffffffffffffffffffffffffff16815260200190815260200160002060008473ffffffffffffffffffffffffffffffffffffffff1673ffffffffffffffffffffffffffffffffffffffff16815260200190815260200160002060006101000a81548160ff0219169083151502179055508173ffffffffffffffffffffffffffffffffffffffff168373ffffffffffffffffffffffffffffffffffffffff167f17307eab39ab6107e8899845ad3d59bd9653f200f220920489ca2b5937696c318360405161254d9190613af1565b60405180910390a3505050565b612565848484612191565b61257184848484612b39565b6125b0576040517f08c379a00000000000000000000000000000000000000000000000000000000081526004016125a790613caa565b60405180910390fd5b50505050565b606060008214156125fe576040518060400160405280600181526020017f3000000000000000000000000000000000000000000000000000000000000000815250905061275e565b600082905060005b6000821461263057808061261990614292565b915050600a8261262991906140ba565b9150612606565b60008167ffffffffffffffff811115612672577f4e487b7100000000000000000000000000000000000000000000000000000000600052604160045260246000fd5b6040519080825280601f01601f1916602001820160405280156126a45781602001600182028036833780820191505090505b5090505b60008514612757576001826126bd9190614145565b9150600a856126cc91906142db565b60306126d89190614064565b60f81b818381518110612714577f4e487b7100000000000000000000000000000000000000000000000000000000600052603260045260246000fd5b60200101907effffffffffffffffffffffffffffffffffffffffffffffffffffffffffffff1916908160001a905350600a8561275091906140ba565b94506126a8565b8093505050505b919050565b6060600082511415612786576040518060200160405280600081525090506128fd565b6000604051806060016040528060408152602001614a9060409139905060006003600285516127b59190614064565b6127bf91906140ba565b60046127cb91906140eb565b905060006020826127dc9190614064565b67ffffffffffffffff81111561281b577f4e487b7100000000000000000000000000000000000000000000000000000000600052604160045260246000fd5b6040519080825280601f01601f19166020018201604052801561284d5781602001600182028036833780820191505090505b509050818152600183018586518101602084015b818310156128bc576003830192508251603f8160121c168501518253600182019150603f81600c1c168501518253600182019150603f8160061c168501518253600182019150603f8116850151825360018201915050612861565b6003895106600181146128d657600281146128e6576128f1565b613d3d60f01b60028303526128f1565b603d60f81b60018303525b50505050508093505050505b919050565b61299e8484848460405160240161291c9493929190613b88565b6040516020818303038152906040527fd5cf17d0000000000000000000000000000000000000000000000000000000007bffffffffffffffffffffffffffffffffffffffffffffffffffffffff19166020820180517bffffffffffffffffffffffffffffffffffffffffffffffffffffffff8381831617835250505050612b0b565b50505050565b612a3c82826040516024016129ba929190613c3c565b6040516020818303038152906040527f9710a9d0000000000000000000000000000000000000000000000000000000007bffffffffffffffffffffffffffffffffffffffffffffffffffffffff19166020820180517bffffffffffffffffffffffffffffffffffffffffffffffffffffffff8381831617835250505050612b0b565b5050565b600081600001549050919050565b612a68828260405180602001604052806000815250612cd0565b5050565b612b06838383604051602401612a8493929190613c6c565b6040516020818303038152906040527f969cdd03000000000000000000000000000000000000000000000000000000007bffffffffffffffffffffffffffffffffffffffffffffffffffffffff19166020820180517bffffffffffffffffffffffffffffffffffffffffffffffffffffffff8381831617835250505050612b0b565b505050565b60008151905060006a636f6e736f6c652e6c6f679050602083016000808483855afa5050505050565b505050565b6000612b5a8473ffffffffffffffffffffffffffffffffffffffff16612d2b565b15612cc3578373ffffffffffffffffffffffffffffffffffffffff1663150b7a02612b83611ff2565b8786866040518563ffffffff1660e01b8152600401612ba59493929190613a4c565b602060405180830381600087803b158015612bbf57600080fd5b505af1925050508015612bf057506040513d601f19601f82011682018060405250810190612bed91906132b5565b60015b612c73573d8060008114612c20576040519150601f19603f3d011682016040523d82523d6000602084013e612c25565b606091505b50600081511415612c6b576040517f08c379a0000000000000000000000000000000000000000000000000000000008152600401612c6290613caa565b60405180910390fd5b805181602001fd5b63150b7a0260e01b7bffffffffffffffffffffffffffffffffffffffffffffffffffffffff1916817bffffffffffffffffffffffffffffffffffffffffffffffffffffffff191614915050612cc8565b600190505b949350505050565b612cda8383612d3e565b612ce76000848484612b39565b612d26576040517f08c379a0000000000000000000000000000000000000000000000000000000008152600401612d1d90613caa565b60405180910390fd5b505050565b600080823b905060008111915050919050565b600073ffffffffffffffffffffffffffffffffffffffff168273ffffffffffffffffffffffffffffffffffffffff161415612dae576040517f08c379a0000000000000000000000000000000000000000000000000000000008152600401612da590613dea565b60405180910390fd5b612db781611f86565b15612df7576040517f08c379a0000000000000000000000000000000000000000000000000000000008152600401612dee90613cea565b60405180910390fd5b612e0360008383612b34565b6001600360008473ffffffffffffffffffffffffffffffffffffffff1673ffffffffffffffffffffffffffffffffffffffff1681526020019081526020016000206000828254612e539190614064565b92505081905550816002600083815260200190815260200160002060006101000a81548173ffffffffffffffffffffffffffffffffffffffff021916908373ffffffffffffffffffffffffffffffffffffffff160217905550808273ffffffffffffffffffffffffffffffffffffffff16600073ffffffffffffffffffffffffffffffffffffffff167fddf252ad1be2c89b69c2b068fc378daa952ba7f163c4a11628f55a4df523b3ef60405160405180910390a45050565b6040518060a0016040528060608152602001606081526020016000815260200160008152602001600081525090565b6040518060c001604052806000815260200160608152602001606081526020016000815260200160008152602001600081525090565b828054612f7d9061422f565b90600052602060002090601f016020900481019282612f9f5760008555612fe6565b82601f10612fb857805160ff1916838001178555612fe6565b82800160010185558215612fe6579182015b82811115612fe5578251825591602001919060010190612fca565b5b509050612ff39190612ff7565b5090565b5b80821115613010576000816000905550600101612ff8565b5090565b600061302761302284613fa6565b613f81565b90508281526020810184848401111561303f57600080fd5b61304a8482856141ed565b509392505050565b60008135905061306181614a0e565b92915050565b60008135905061307681614a25565b92915050565b60008135905061308b81614a3c565b92915050565b6000815190506130a081614a3c565b92915050565b600082601f8301126130b757600080fd5b81356130c7848260208601613014565b91505092915050565b6000813590506130df81614a53565b92915050565b6000602082840312156130f757600080fd5b600061310584828501613052565b91505092915050565b6000806040838503121561312157600080fd5b600061312f85828601613052565b925050602061314085828601613052565b9150509250929050565b60008060006060848603121561315f57600080fd5b600061316d86828701613052565b935050602061317e86828701613052565b925050604061318f868287016130d0565b9150509250925092565b600080600080608085870312156131af57600080fd5b60006131bd87828801613052565b94505060206131ce87828801613052565b93505060406131df878288016130d0565b925050606085013567ffffffffffffffff8111156131fc57600080fd5b613208878288016130a6565b91505092959194509250565b6000806040838503121561322757600080fd5b600061323585828601613052565b925050602061324685828601613067565b9150509250929050565b6000806040838503121561326357600080fd5b600061327185828601613052565b9250506020613282858286016130d0565b9150509250929050565b60006020828403121561329e57600080fd5b60006132ac8482850161307c565b91505092915050565b6000602082840312156132c757600080fd5b60006132d584828501613091565b91505092915050565b6000602082840312156132f057600080fd5b60006132fe848285016130d0565b91505092915050565b6000613313838361382c565b905092915050565b61332481614179565b82525050565b600061333582613fe7565b61333f8185614015565b93508360208202850161335185613fd7565b8060005b8581101561338d578484038952815161336e8582613307565b945061337983614008565b925060208a01995050600181019050613355565b50829750879550505050505092915050565b6133a88161418b565b82525050565b60006133b982613ff2565b6133c38185614026565b93506133d38185602086016141fc565b6133dc816143c8565b840191505092915050565b60006133f282613ffd565b6133fc8185614037565b935061340c8185602086016141fc565b613415816143c8565b840191505092915050565b600061342b82613ffd565b6134358185614048565b93506134458185602086016141fc565b61344e816143c8565b840191505092915050565b600061346482613ffd565b61346e8185614059565b935061347e8185602086016141fc565b80840191505092915050565b6000613497600b83614059565b91506134a2826143d9565b600b82019050919050565b60006134ba603283614048565b91506134c582614402565b604082019050919050565b60006134dd602883614048565b91506134e882614451565b604082019050919050565b6000613500601c83614048565b915061350b826144a0565b602082019050919050565b6000613523600e83614059565b915061352e826144c9565b600e82019050919050565b6000613546602483614048565b9150613551826144f2565b604082019050919050565b6000613569601983614048565b915061357482614541565b602082019050919050565b600061358c602c83614048565b91506135978261456a565b604082019050919050565b60006135af603883614048565b91506135ba826145b9565b604082019050919050565b60006135d2602a83614048565b91506135dd82614608565b604082019050919050565b60006135f5602983614048565b915061360082614657565b604082019050919050565b6000613618602d83614048565b9150613623826146a6565b604082019050919050565b600061363b600483614059565b9150613646826146f5565b600482019050919050565b600061365e602083614048565b91506136698261471e565b602082019050919050565b6000613681602c83614048565b915061368c82614747565b604082019050919050565b60006136a4602983614048565b91506136af82614796565b604082019050919050565b60006136c7600a83614059565b91506136d2826147e5565b600a82019050919050565b60006136ea602183614048565b91506136f58261480e565b604082019050919050565b600061370d601d83614059565b91506137188261485d565b601d82019050919050565b6000613730606983614059565b915061373b82614886565b606982019050919050565b6000613753603183614048565b915061375e82614921565b604082019050919050565b6000613776603d83614059565b915061378182614970565b603d82019050919050565b6000613799602d83614059565b91506137a4826149bf565b602d82019050919050565b600060a08301600083015184820360008601526137cc82826133e7565b915050602083015184820360208601526137e682826133e7565b91505060408301516137fb604086018261394c565b50606083015161380e606086018261394c565b506080830151613821608086018261394c565b508091505092915050565b600060c083016000830151613844600086018261394c565b506020830151848203602086015261385c82826133e7565b9150506040830151848203604086015261387682826133e7565b915050606083015161388b606086018261394c565b50608083015161389e608086018261394c565b5060a08301516138b160a086018261394c565b508091505092915050565b600060c0830160008301516138d4600086018261394c565b50602083015184820360208601526138ec82826133e7565b9150506040830151848203604086015261390682826133e7565b915050606083015161391b606086018261394c565b50608083015161392e608086018261394c565b5060a083015161394160a086018261394c565b508091505092915050565b613955816141e3565b82525050565b613964816141e3565b82525050565b6000613975826136ba565b91506139818289613459565b915061398c8261348a565b91506139988288613459565b91506139a382613723565b91506139af8287613459565b91506139ba82613769565b91506139c68286613459565b91506139d182613516565b91506139dd8285613459565b91506139e88261378c565b91506139f48284613459565b91506139ff8261362e565b9150819050979650505050505050565b6000613a1a82613700565b9150613a268284613459565b915081905092915050565b6000602082019050613a46600083018461331b565b92915050565b6000608082019050613a61600083018761331b565b613a6e602083018661331b565b613a7b604083018561395b565b8181036060830152613a8d81846133ae565b905095945050505050565b6000606082019050613aad600083018661331b565b613aba602083018561395b565b613ac7604083018461395b565b949350505050565b60006020820190508181036000830152613ae9818461332a565b905092915050565b6000602082019050613b06600083018461339f565b92915050565b60006020820190508181036000830152613b268184613420565b905092915050565b60006080820190508181036000830152613b488187613420565b90508181036020830152613b5c8186613420565b9050613b6b604083018561395b565b8181036060830152613b7d8184613420565b905095945050505050565b60006080820190508181036000830152613ba28187613420565b90508181036020830152613bb68186613420565b9050613bc5604083018561395b565b613bd2606083018461395b565b95945050505050565b600060a0820190508181036000830152613bf58188613420565b90508181036020830152613c098187613420565b9050613c18604083018661395b565b613c25606083018561395b565b613c32608083018461395b565b9695505050505050565b60006040820190508181036000830152613c568185613420565b9050613c65602083018461395b565b9392505050565b60006060820190508181036000830152613c868186613420565b9050613c95602083018561395b565b613ca2604083018461395b565b949350505050565b60006020820190508181036000830152613cc3816134ad565b9050919050565b60006020820190508181036000830152613ce3816134d0565b9050919050565b60006020820190508181036000830152613d03816134f3565b9050919050565b60006020820190508181036000830152613d2381613539565b9050919050565b60006020820190508181036000830152613d438161355c565b9050919050565b60006020820190508181036000830152613d638161357f565b9050919050565b60006020820190508181036000830152613d83816135a2565b9050919050565b60006020820190508181036000830152613da3816135c5565b9050919050565b60006020820190508181036000830152613dc3816135e8565b9050919050565b60006020820190508181036000830152613de38161360b565b9050919050565b60006020820190508181036000830152613e0381613651565b9050919050565b60006020820190508181036000830152613e2381613674565b9050919050565b60006020820190508181036000830152613e4381613697565b9050919050565b60006020820190508181036000830152613e63816136dd565b9050919050565b60006020820190508181036000830152613e8381613746565b9050919050565b60006020820190508181036000830152613ea481846137af565b905092915050565b60006020820190508181036000830152613ec681846138bc565b905092915050565b6000602082019050613ee3600083018461395b565b92915050565b600060c082019050613efe600083018961395b565b8181036020830152613f108188613420565b90508181036040830152613f248187613420565b9050613f33606083018661395b565b613f40608083018561395b565b613f4d60a083018461395b565b979650505050505050565b6000604082019050613f6d600083018561395b565b613f7a602083018461395b565b9392505050565b6000613f8b613f9c565b9050613f978282614261565b919050565b6000604051905090565b600067ffffffffffffffff821115613fc157613fc0614399565b5b613fca826143c8565b9050602081019050919050565b6000819050602082019050919050565b600081519050919050565b600081519050919050565b600081519050919050565b6000602082019050919050565b600082825260208201905092915050565b600082825260208201905092915050565b600082825260208201905092915050565b600082825260208201905092915050565b600081905092915050565b600061406f826141e3565b915061407a836141e3565b9250827fffffffffffffffffffffffffffffffffffffffffffffffffffffffffffffffff038211156140af576140ae61430c565b5b828201905092915050565b60006140c5826141e3565b91506140d0836141e3565b9250826140e0576140df61433b565b5b828204905092915050565b60006140f6826141e3565b9150614101836141e3565b9250817fffffffffffffffffffffffffffffffffffffffffffffffffffffffffffffffff048311821515161561413a5761413961430c565b5b828202905092915050565b6000614150826141e3565b915061415b836141e3565b92508282101561416e5761416d61430c565b5b828203905092915050565b6000614184826141c3565b9050919050565b60008115159050919050565b60007fffffffff0000000000000000000000000000000000000000000000000000000082169050919050565b600073ffffffffffffffffffffffffffffffffffffffff82169050919050565b6000819050919050565b82818337600083830152505050565b60005b8381101561421a5780820151818401526020810190506141ff565b83811115614229576000848401525b50505050565b6000600282049050600182168061424757607f821691505b6020821081141561425b5761425a61436a565b5b50919050565b61426a826143c8565b810181811067ffffffffffffffff8211171561428957614288614399565b5b80604052505050565b600061429d826141e3565b91507fffffffffffffffffffffffffffffffffffffffffffffffffffffffffffffffff8214156142d0576142cf61430c565b5b600182019050919050565b60006142e6826141e3565b91506142f1836141e3565b9250826143015761430061433b565b5b828206905092915050565b7f4e487b7100000000000000000000000000000000000000000000000000000000600052601160045260246000fd5b7f4e487b7100000000000000000000000000000000000000000000000000000000600052601260045260246000fd5b7f4e487b7100000000000000000000000000000000000000000000000000000000600052602260045260246000fd5b7f4e487b7100000000000000000000000000000000000000000000000000000000600052604160045260246000fd5b6000601f19601f8301169050919050565b7f202d2d204e465420233a20000000000000000000000000000000000000000000600082015250565b7f4552433732313a207472616e7366657220746f206e6f6e20455243373231526560008201527f63656976657220696d706c656d656e7465720000000000000000000000000000602082015250565b7f4572726f723a20626f7373206d757374206861766520485020746f206174746160008201527f636b20626f73732e000000000000000000000000000000000000000000000000602082015250565b7f4552433732313a20746f6b656e20616c7265616479206d696e74656400000000600082015250565b7f2c20226d61785f76616c7565223a000000000000000000000000000000000000600082015250565b7f4552433732313a207472616e7366657220746f20746865207a65726f2061646460008201527f7265737300000000000000000000000000000000000000000000000000000000602082015250565b7f4552433732313a20617070726f766520746f2063616c6c657200000000000000600082015250565b7f4552433732313a206f70657261746f7220717565727920666f72206e6f6e657860008201527f697374656e7420746f6b656e0000000000000000000000000000000000000000602082015250565b7f4552433732313a20617070726f76652063616c6c6572206973206e6f74206f7760008201527f6e6572206e6f7220617070726f76656420666f7220616c6c0000000000000000602082015250565b7f4552433732313a2062616c616e636520717565727920666f7220746865207a6560008201527f726f206164647265737300000000000000000000000000000000000000000000602082015250565b7f4552433732313a206f776e657220717565727920666f72206e6f6e657869737460008201527f656e7420746f6b656e0000000000000000000000000000000000000000000000602082015250565b7f4572726f723a20636861726163746572206d757374206861766520485020746f60008201527f2061747461636b20626f73732e00000000000000000000000000000000000000602082015250565b7f7d205d7d00000000000000000000000000000000000000000000000000000000600082015250565b7f4552433732313a206d696e7420746f20746865207a65726f2061646472657373600082015250565b7f4552433732313a20617070726f76656420717565727920666f72206e6f6e657860008201527f697374656e7420746f6b656e0000000000000000000000000000000000000000602082015250565b7f4552433732313a207472616e73666572206f6620746f6b656e2074686174206960008201527f73206e6f74206f776e0000000000000000000000000000000000000000000000602082015250565b7f7b226e616d65223a202200000000000000000000000000000000000000000000600082015250565b7f4552433732313a20617070726f76616c20746f2063757272656e74206f776e6560008201527f7200000000000000000000000000000000000000000000000000000000000000602082015250565b7f646174613a6170706c69636174696f6e2f6a736f6e3b6261736536342c000000600082015250565b7f222c20226465736372697074696f6e223a20225468697320697320616e204e4660008201527f542074686174206c6574732070656f706c6520706c617920696e20746865206760208201527f616d65204d657461766572736520536c6179657221222c2022696d616765223a60408201527f2022697066733a2f2f0000000000000000000000000000000000000000000000606082015250565b7f4552433732313a207472616e736665722063616c6c6572206973206e6f74206f60008201527f776e6572206e6f7220617070726f766564000000000000000000000000000000602082015250565b7f222c202261747472696275746573223a205b207b202274726169745f7479706560008201527f223a20224865616c746820506f696e7473222c202276616c7565223a20000000602082015250565b7f7d2c207b202274726169745f74797065223a202241747461636b2044616d616760008201527f65222c202276616c7565223a2000000000000000000000000000000000000000602082015250565b614a1781614179565b8114614a2257600080fd5b50565b614a2e8161418b565b8114614a3957600080fd5b50565b614a4581614197565b8114614a5057600080fd5b50565b614a5c816141e3565b8114614a6757600080fd5b5056fe506c617965722061747461636b656420626f73732e204e657720626f73732068703a2025734142434445464748494a4b4c4d4e4f505152535455565758595a6162636465666768696a6b6c6d6e6f707172737475767778797a303132333435363738392b2f426f73732061747461636b656420706c617965722e204e657720706c617965722068703a2025730a4d696e746564204e465420772f20746f6b656e496420257320616e6420636861726163746572496e6465782025730a506c6179657220772f206368617261637465722025732061626f757420746f2061747461636b2e2048617320257320485020616e64202573204144a2646970667358221220bdb73b8464649ba61d627d66ddcedae613fd03d1e87c32de05cc6c223b26bc5564736f6c63430008040033446f6e6520696e697469616c697a696e6720257320772f2048502025732c20696d67202573446f6e6520696e697469616c697a696e6720626f737320257320772f2048502025732c20696d67202573",
  "linkReferences": {},
  "deployedLinkReferences": {}
}